{
  "_format": "hh-sol-artifact-1",
  "contractName": "ArtSeaMarket",
  "sourceName": "contracts/ArtSeaMarket.sol",
  "abi": [
    {
      "anonymous": false,
      "inputs": [
        {
          "indexed": false,
          "internalType": "uint256",
          "name": "auctionId",
          "type": "uint256"
        },
        {
          "indexed": false,
          "internalType": "address",
          "name": "tokenAddress",
          "type": "address"
        },
        {
          "indexed": false,
          "internalType": "uint256",
          "name": "tokenId",
          "type": "uint256"
        },
        {
          "indexed": false,
          "internalType": "uint256",
          "name": "minBidAmount",
          "type": "uint256"
        }
      ],
      "name": "AuctionCreated",
      "type": "event"
    },
    {
      "anonymous": false,
      "inputs": [
        {
          "indexed": false,
          "internalType": "uint256",
          "name": "auctionId",
          "type": "uint256"
        },
        {
          "indexed": false,
          "internalType": "address payable",
          "name": "bidder",
          "type": "address"
        },
        {
          "indexed": false,
          "internalType": "uint256",
          "name": "bidAmount",
          "type": "uint256"
        }
      ],
      "name": "BidPlaced",
      "type": "event"
    },
    {
      "inputs": [],
      "name": "auctionIds",
      "outputs": [
        {
          "internalType": "uint256",
          "name": "_value",
          "type": "uint256"
        }
      ],
      "stateMutability": "view",
      "type": "function"
    },
    {
      "inputs": [
        {
          "internalType": "uint256",
          "name": "",
          "type": "uint256"
        }
      ],
      "name": "auctionIsLive",
      "outputs": [
        {
          "internalType": "bool",
          "name": "",
          "type": "bool"
        }
      ],
      "stateMutability": "view",
      "type": "function"
    },
    {
      "inputs": [
        {
          "internalType": "uint256",
          "name": "",
          "type": "uint256"
        }
      ],
      "name": "auctions",
      "outputs": [
        {
          "internalType": "address payable",
          "name": "ownerAddress",
          "type": "address"
        },
        {
          "internalType": "address",
          "name": "tokenAddress",
          "type": "address"
        },
        {
          "internalType": "uint256",
          "name": "tokenId",
          "type": "uint256"
        },
        {
          "internalType": "uint256",
          "name": "minBidAmount",
          "type": "uint256"
        },
        {
          "internalType": "uint256",
          "name": "highestBidAmount",
          "type": "uint256"
        },
        {
          "internalType": "address payable",
          "name": "highestBidder",
          "type": "address"
        },
        {
          "internalType": "bool",
          "name": "sold",
          "type": "bool"
        }
      ],
      "stateMutability": "view",
      "type": "function"
    },
    {
      "inputs": [
        {
          "internalType": "address",
          "name": "tokenAddress",
          "type": "address"
        },
        {
          "internalType": "uint256",
          "name": "tokenId",
          "type": "uint256"
        },
        {
          "internalType": "uint256",
          "name": "minBidAmount",
          "type": "uint256"
        }
      ],
      "name": "createAuction",
      "outputs": [],
      "stateMutability": "nonpayable",
      "type": "function"
    },
    {
      "inputs": [
        {
          "internalType": "uint256",
          "name": "auctionId",
          "type": "uint256"
        },
        {
          "internalType": "bool",
          "name": "accept",
          "type": "bool"
        }
      ],
      "name": "finalizeAuction",
      "outputs": [],
      "stateMutability": "nonpayable",
      "type": "function"
    },
    {
      "inputs": [],
      "name": "liveAuctionIds",
      "outputs": [
        {
          "internalType": "uint256[]",
          "name": "",
          "type": "uint256[]"
        }
      ],
      "stateMutability": "view",
      "type": "function"
    },
    {
      "inputs": [
        {
          "internalType": "uint256",
          "name": "auctionId",
          "type": "uint256"
        }
      ],
      "name": "placeBid",
      "outputs": [],
      "stateMutability": "payable",
      "type": "function"
    },
    {
      "inputs": [
        {
          "internalType": "address",
          "name": "",
          "type": "address"
        },
        {
          "internalType": "uint256",
          "name": "",
          "type": "uint256"
        }
      ],
      "name": "tokenIsForSale",
      "outputs": [
        {
          "internalType": "bool",
          "name": "",
          "type": "bool"
        }
      ],
      "stateMutability": "view",
      "type": "function"
    }
  ],
  "bytecode": "0x608060405234801561001057600080fd5b506118e2806100206000396000f3fe60806040526004361061007b5760003560e01c80639979ef451161004e5780639979ef4514610154578063a049a0b714610170578063abb94051146101ad578063b866a7b8146101d65761007b565b8063073272cc14610080578063077669f7146100bd578063571a26a0146100e85780638cdaab531461012b575b600080fd5b34801561008c57600080fd5b506100a760048036038101906100a291906112b6565b610201565b6040516100b4919061153f565b60405180910390f35b3480156100c957600080fd5b506100d2610221565b6040516100df91906115da565b60405180910390f35b3480156100f457600080fd5b5061010f600480360381019061010a91906112b6565b61022d565b60405161012297969594939291906114ae565b60405180910390f35b34801561013757600080fd5b50610152600480360381019061014d91906112df565b6102ec565b005b61016e600480360381019061016991906112b6565b610788565b005b34801561017c57600080fd5b506101976004803603810190610192919061122b565b610ac8565b6040516101a4919061153f565b60405180910390f35b3480156101b957600080fd5b506101d460048036038101906101cf9190611267565b610af7565b005b3480156101e257600080fd5b506101eb610f47565b6040516101f8919061151d565b60405180910390f35b60026020528060005260406000206000915054906101000a900460ff1681565b60008060000154905081565b6001818154811061023d57600080fd5b90600052602060002090600602016000915090508060000160009054906101000a900473ffffffffffffffffffffffffffffffffffffffff16908060010160009054906101000a900473ffffffffffffffffffffffffffffffffffffffff16908060020154908060030154908060040154908060050160009054906101000a900473ffffffffffffffffffffffffffffffffffffffff16908060050160149054906101000a900460ff16905087565b600060018381548110610328577f4e487b7100000000000000000000000000000000000000000000000000000000600052603260045260246000fd5b90600052602060002090600602016040518060e00160405290816000820160009054906101000a900473ffffffffffffffffffffffffffffffffffffffff1673ffffffffffffffffffffffffffffffffffffffff1673ffffffffffffffffffffffffffffffffffffffff1681526020016001820160009054906101000a900473ffffffffffffffffffffffffffffffffffffffff1673ffffffffffffffffffffffffffffffffffffffff1673ffffffffffffffffffffffffffffffffffffffff1681526020016002820154815260200160038201548152602001600482015481526020016005820160009054906101000a900473ffffffffffffffffffffffffffffffffffffffff1673ffffffffffffffffffffffffffffffffffffffff1673ffffffffffffffffffffffffffffffffffffffff1681526020016005820160149054906101000a900460ff16151515158152505090503373ffffffffffffffffffffffffffffffffffffffff16816000015173ffffffffffffffffffffffffffffffffffffffff16146104f0576040517f08c379a00000000000000000000000000000000000000000000000000000000081526004016104e79061159a565b60405180910390fd5b8115610632576000816020015190508073ffffffffffffffffffffffffffffffffffffffff166342842e0e83600001518460a0015185604001516040518463ffffffff1660e01b815260040161054893929190611477565b600060405180830381600087803b15801561056257600080fd5b505af1158015610576573d6000803e3d6000fd5b50505050816000015173ffffffffffffffffffffffffffffffffffffffff166108fc83608001519081150290604051600060405180830381858888f193505050501580156105c8573d6000803e3d6000fd5b506001808581548110610604577f4e487b7100000000000000000000000000000000000000000000000000000000600052603260045260246000fd5b906000526020600020906006020160050160146101000a81548160ff021916908315150217905550506106e6565b8060a0015173ffffffffffffffffffffffffffffffffffffffff166108fc82608001519081150290604051600060405180830381858888f19350505050158015610680573d6000803e3d6000fd5b506000600184815481106106bd577f4e487b7100000000000000000000000000000000000000000000000000000000600052603260045260246000fd5b906000526020600020906006020160050160146101000a81548160ff0219169083151502179055505b60006002600085815260200190815260200160002060006101000a81548160ff021916908315150217905550600060036000836020015173ffffffffffffffffffffffffffffffffffffffff1673ffffffffffffffffffffffffffffffffffffffff16815260200190815260200160002060008360400151815260200190815260200160002060006101000a81548160ff021916908315150217905550505050565b6000600182815481106107c4577f4e487b7100000000000000000000000000000000000000000000000000000000600052603260045260246000fd5b90600052602060002090600602016040518060e00160405290816000820160009054906101000a900473ffffffffffffffffffffffffffffffffffffffff1673ffffffffffffffffffffffffffffffffffffffff1673ffffffffffffffffffffffffffffffffffffffff1681526020016001820160009054906101000a900473ffffffffffffffffffffffffffffffffffffffff1673ffffffffffffffffffffffffffffffffffffffff1673ffffffffffffffffffffffffffffffffffffffff1681526020016002820154815260200160038201548152602001600482015481526020016005820160009054906101000a900473ffffffffffffffffffffffffffffffffffffffff1673ffffffffffffffffffffffffffffffffffffffff1673ffffffffffffffffffffffffffffffffffffffff1681526020016005820160149054906101000a900460ff161515151581525050905080608001513411610960576040517f08c379a00000000000000000000000000000000000000000000000000000000081526004016109579061157a565b60405180910390fd5b8060a0015173ffffffffffffffffffffffffffffffffffffffff166108fc82608001519081150290604051600060405180830381858888f193505050501580156109ae573d6000803e3d6000fd5b5034600183815481106109ea577f4e487b7100000000000000000000000000000000000000000000000000000000600052603260045260246000fd5b9060005260206000209060060201600401819055503360018381548110610a3a577f4e487b7100000000000000000000000000000000000000000000000000000000600052603260045260246000fd5b906000526020600020906006020160050160006101000a81548173ffffffffffffffffffffffffffffffffffffffff021916908373ffffffffffffffffffffffffffffffffffffffff1602179055507f0e54eff26401bf69b81b26f60bd85ef47f5d85275c1d268d84f68d6897431c47823334604051610abc939291906115f5565b60405180910390a15050565b60036020528160005260406000206020528060005260406000206000915091509054906101000a900460ff1681565b600083905060008173ffffffffffffffffffffffffffffffffffffffff16636352211e856040518263ffffffff1660e01b8152600401610b3791906115da565b60206040518083038186803b158015610b4f57600080fd5b505afa158015610b63573d6000803e3d6000fd5b505050506040513d601f19601f82011682018060405250810190610b879190611202565b90503373ffffffffffffffffffffffffffffffffffffffff168173ffffffffffffffffffffffffffffffffffffffff1614610bf7576040517f08c379a0000000000000000000000000000000000000000000000000000000008152600401610bee9061155a565b60405180910390fd5b600360008673ffffffffffffffffffffffffffffffffffffffff1673ffffffffffffffffffffffffffffffffffffffff168152602001908152602001600020600085815260200190815260200160002060009054906101000a900460ff1615610c95576040517f08c379a0000000000000000000000000000000000000000000000000000000008152600401610c8c906115ba565b60405180910390fd5b60006040518060e001604052803373ffffffffffffffffffffffffffffffffffffffff1681526020018773ffffffffffffffffffffffffffffffffffffffff16815260200186815260200185815260200160008152602001600073ffffffffffffffffffffffffffffffffffffffff1681526020016000151581525090506000610d1f600061118a565b905060016002600083815260200190815260200160002060006101000a81548160ff0219169083151502179055506001600360008973ffffffffffffffffffffffffffffffffffffffff1673ffffffffffffffffffffffffffffffffffffffff168152602001908152602001600020600088815260200190815260200160002060006101000a81548160ff021916908315150217905550600182908060018154018082558091505060019003906000526020600020906006020160009091909190915060008201518160000160006101000a81548173ffffffffffffffffffffffffffffffffffffffff021916908373ffffffffffffffffffffffffffffffffffffffff16021790555060208201518160010160006101000a81548173ffffffffffffffffffffffffffffffffffffffff021916908373ffffffffffffffffffffffffffffffffffffffff16021790555060408201518160020155606082015181600301556080820151816004015560a08201518160050160006101000a81548173ffffffffffffffffffffffffffffffffffffffff021916908373ffffffffffffffffffffffffffffffffffffffff16021790555060c08201518160050160146101000a81548160ff0219169083151502179055505050610f016000611198565b7fc9050d42180a61cb0d9ebb8ad118b62fe6eab12cf12ff752c4a0cc7da9ddf62781888888604051610f36949392919061162c565b60405180910390a150505050505050565b6060600080610f56600061118a565b67ffffffffffffffff811115610f95577f4e487b7100000000000000000000000000000000000000000000000000000000600052604160045260246000fd5b604051908082528060200260200182016040528015610fc35781602001602082028036833780820191505090505b50905060005b610fd3600061118a565b811015611068576002600082815260200190815260200160002060009054906101000a900460ff1615611055578082848151811061103a577f4e487b7100000000000000000000000000000000000000000000000000000000600052603260045260246000fd5b60200260200101818152505082806110519061174b565b9350505b80806110609061174b565b915050610fc9565b5060008267ffffffffffffffff8111156110ab577f4e487b7100000000000000000000000000000000000000000000000000000000600052604160045260246000fd5b6040519080825280602002602001820160405280156110d95781602001602082028036833780820191505090505b50905060005b8381101561118057828181518110611120577f4e487b7100000000000000000000000000000000000000000000000000000000600052603260045260246000fd5b6020026020010151828281518110611161577f4e487b7100000000000000000000000000000000000000000000000000000000600052603260045260246000fd5b60200260200101818152505080806111789061174b565b9150506110df565b5080935050505090565b600081600001549050919050565b6001816000016000828254019250508190555050565b6000813590506111bd81611867565b92915050565b6000815190506111d281611867565b92915050565b6000813590506111e78161187e565b92915050565b6000813590506111fc81611895565b92915050565b60006020828403121561121457600080fd5b6000611222848285016111c3565b91505092915050565b6000806040838503121561123e57600080fd5b600061124c858286016111ae565b925050602061125d858286016111ed565b9150509250929050565b60008060006060848603121561127c57600080fd5b600061128a868287016111ae565b935050602061129b868287016111ed565b92505060406112ac868287016111ed565b9150509250925092565b6000602082840312156112c857600080fd5b60006112d6848285016111ed565b91505092915050565b600080604083850312156112f257600080fd5b6000611300858286016111ed565b9250506020611311858286016111d8565b9150509250929050565b60006113278383611459565b60208301905092915050565b61133c81611715565b82525050565b61134b816116cd565b82525050565b61135a816116bb565b82525050565b600061136b82611681565b6113758185611699565b935061138083611671565b8060005b838110156113b1578151611398888261131b565b97506113a38361168c565b925050600181019050611384565b5085935050505092915050565b6113c7816116df565b82525050565b60006113da6016836116aa565b91506113e5826117c3565b602082019050919050565b60006113fd6013836116aa565b9150611408826117ec565b602082019050919050565b60006114206016836116aa565b915061142b82611815565b602082019050919050565b60006114436019836116aa565b915061144e8261183e565b602082019050919050565b6114628161170b565b82525050565b6114718161170b565b82525050565b600060608201905061148c6000830186611333565b6114996020830185611333565b6114a66040830184611468565b949350505050565b600060e0820190506114c3600083018a611342565b6114d06020830189611351565b6114dd6040830188611468565b6114ea6060830187611468565b6114f76080830186611468565b61150460a0830185611342565b61151160c08301846113be565b98975050505050505050565b600060208201905081810360008301526115378184611360565b905092915050565b600060208201905061155460008301846113be565b92915050565b60006020820190508181036000830152611573816113cd565b9050919050565b60006020820190508181036000830152611593816113f0565b9050919050565b600060208201905081810360008301526115b381611413565b9050919050565b600060208201905081810360008301526115d381611436565b9050919050565b60006020820190506115ef6000830184611468565b92915050565b600060608201905061160a6000830186611468565b6116176020830185611342565b6116246040830184611468565b949350505050565b60006080820190506116416000830187611468565b61164e6020830186611351565b61165b6040830185611468565b6116686060830184611468565b95945050505050565b6000819050602082019050919050565b600081519050919050565b6000602082019050919050565b600082825260208201905092915050565b600082825260208201905092915050565b60006116c6826116eb565b9050919050565b60006116d8826116eb565b9050919050565b60008115159050919050565b600073ffffffffffffffffffffffffffffffffffffffff82169050919050565b6000819050919050565b600061172082611727565b9050919050565b600061173282611739565b9050919050565b6000611744826116eb565b9050919050565b60006117568261170b565b91507fffffffffffffffffffffffffffffffffffffffffffffffffffffffffffffffff82141561178957611788611794565b5b600182019050919050565b7f4e487b7100000000000000000000000000000000000000000000000000000000600052601160045260246000fd5b7f596f7520646f206e6f74206f776e20746865204e465400000000000000000000600082015250565b7f596f75722062696420697320746f6f206c6f7700000000000000000000000000600082015250565b7f596f7520617265206e6f74207468652073656c6c657200000000000000000000600082015250565b7f546f6b656e20697320616c726561647920666f722073616c6500000000000000600082015250565b611870816116bb565b811461187b57600080fd5b50565b611887816116df565b811461189257600080fd5b50565b61189e8161170b565b81146118a957600080fd5b5056fea264697066735822122008f4b50ffeb587c8acdd5726cb10e6e4c10e6a715a2efe2fb160e682f0f4144764736f6c63430008040033",
  "linkReferences": {},
  "deployedLinkReferences": {}
}