{
  "_format": "hh-sol-artifact-1",
  "contractName": "ArtSeaMarket",
  "sourceName": "contracts/ArtSeaMarket.sol",
  "abi": [
    {
      "anonymous": false,
      "inputs": [
        {
          "indexed": false,
          "internalType": "uint256",
          "name": "auctionId",
          "type": "uint256"
        },
        {
          "indexed": false,
          "internalType": "address",
          "name": "tokenAddress",
          "type": "address"
        },
        {
          "indexed": false,
          "internalType": "uint256",
          "name": "tokenId",
          "type": "uint256"
        },
        {
          "indexed": false,
          "internalType": "uint256",
          "name": "minBidAmount",
          "type": "uint256"
        }
      ],
      "name": "AuctionCreated",
      "type": "event"
    },
    {
      "inputs": [
        {
          "internalType": "uint256",
          "name": "auctionId",
          "type": "uint256"
        },
        {
          "internalType": "bool",
          "name": "accept",
          "type": "bool"
        }
      ],
      "name": "finalizeAuction",
      "outputs": [],
      "stateMutability": "nonpayable",
      "type": "function"
    },
    {
      "inputs": [
        {
          "internalType": "address",
          "name": "tokenAddress",
          "type": "address"
        },
        {
          "internalType": "uint256",
          "name": "tokenId",
          "type": "uint256"
        },
        {
          "internalType": "uint256",
          "name": "minBidAmount",
          "type": "uint256"
        }
      ],
      "name": "submitAuction",
      "outputs": [],
      "stateMutability": "nonpayable",
      "type": "function"
    },
    {
      "inputs": [
        {
          "internalType": "uint256",
          "name": "auctionId",
          "type": "uint256"
        }
      ],
      "name": "submitBid",
      "outputs": [],
      "stateMutability": "payable",
      "type": "function"
    }
  ],
  "bytecode": "0x608060405234801561001057600080fd5b50610cc2806100206000396000f3fe6080604052600436106100345760003560e01c80635fd4b5161461003957806374bdda15146100625780638cdaab531461007e575b600080fd5b34801561004557600080fd5b50610060600480360381019061005b91906109d4565b6100a7565b005b61007c60048036038101906100779190610a23565b6103e4565b005b34801561008a57600080fd5b506100a560048036038101906100a09190610a4c565b610634565b005b600083905060008173ffffffffffffffffffffffffffffffffffffffff16636352211e856040518263ffffffff1660e01b81526004016100e79190610b2f565b60206040518083038186803b1580156100ff57600080fd5b505afa158015610113573d6000803e3d6000fd5b505050506040513d601f19601f8201168201806040525081019061013791906109ab565b90503373ffffffffffffffffffffffffffffffffffffffff168173ffffffffffffffffffffffffffffffffffffffff16146101a7576040517f08c379a000000000000000000000000000000000000000000000000000000000815260040161019e90610b0f565b60405180910390fd5b60006040518061010001604052803373ffffffffffffffffffffffffffffffffffffffff1681526020018773ffffffffffffffffffffffffffffffffffffffff16815260200186815260200185815260200160008152602001600073ffffffffffffffffffffffffffffffffffffffff168152602001600015158152602001600015158152509050600061023b6000610949565b9050600182908060018154018082558091505060019003906000526020600020906006020160009091909190915060008201518160000160006101000a81548173ffffffffffffffffffffffffffffffffffffffff021916908373ffffffffffffffffffffffffffffffffffffffff16021790555060208201518160010160006101000a81548173ffffffffffffffffffffffffffffffffffffffff021916908373ffffffffffffffffffffffffffffffffffffffff16021790555060408201518160020155606082015181600301556080820151816004015560a08201518160050160006101000a81548173ffffffffffffffffffffffffffffffffffffffff021916908373ffffffffffffffffffffffffffffffffffffffff16021790555060c08201518160050160146101000a81548160ff02191690831515021790555060e08201518160050160156101000a81548160ff02191690831515021790555050507fc9050d42180a61cb0d9ebb8ad118b62fe6eab12cf12ff752c4a0cc7da9ddf627818888886040516103d39493929190610b4a565b60405180910390a150505050505050565b600060018281548110610420577f4e487b7100000000000000000000000000000000000000000000000000000000600052603260045260246000fd5b9060005260206000209060060201604051806101000160405290816000820160009054906101000a900473ffffffffffffffffffffffffffffffffffffffff1673ffffffffffffffffffffffffffffffffffffffff1673ffffffffffffffffffffffffffffffffffffffff1681526020016001820160009054906101000a900473ffffffffffffffffffffffffffffffffffffffff1673ffffffffffffffffffffffffffffffffffffffff1673ffffffffffffffffffffffffffffffffffffffff1681526020016002820154815260200160038201548152602001600482015481526020016005820160009054906101000a900473ffffffffffffffffffffffffffffffffffffffff1673ffffffffffffffffffffffffffffffffffffffff1673ffffffffffffffffffffffffffffffffffffffff1681526020016005820160149054906101000a900460ff161515151581526020016005820160159054906101000a900460ff16151515158152505090508060800151341115610630578060a0015173ffffffffffffffffffffffffffffffffffffffff166108fc82608001519081150290604051600060405180830381858888f193505050501580156105ec573d6000803e3d6000fd5b5034816080018181525050338160a0019073ffffffffffffffffffffffffffffffffffffffff16908173ffffffffffffffffffffffffffffffffffffffff16815250505b5050565b600060018381548110610670577f4e487b7100000000000000000000000000000000000000000000000000000000600052603260045260246000fd5b9060005260206000209060060201604051806101000160405290816000820160009054906101000a900473ffffffffffffffffffffffffffffffffffffffff1673ffffffffffffffffffffffffffffffffffffffff1673ffffffffffffffffffffffffffffffffffffffff1681526020016001820160009054906101000a900473ffffffffffffffffffffffffffffffffffffffff1673ffffffffffffffffffffffffffffffffffffffff1673ffffffffffffffffffffffffffffffffffffffff1681526020016002820154815260200160038201548152602001600482015481526020016005820160009054906101000a900473ffffffffffffffffffffffffffffffffffffffff1673ffffffffffffffffffffffffffffffffffffffff1673ffffffffffffffffffffffffffffffffffffffff1681526020016005820160149054906101000a900460ff161515151581526020016005820160159054906101000a900460ff161515151581525050905081156108d2576000816020015190508073ffffffffffffffffffffffffffffffffffffffff166342842e0e83600001518460a0015185604001516040518463ffffffff1660e01b815260040161083a93929190610ad8565b600060405180830381600087803b15801561085457600080fd5b505af1158015610868573d6000803e3d6000fd5b50505050816000015173ffffffffffffffffffffffffffffffffffffffff166108fc83608001519081150290604051600060405180830381858888f193505050501580156108ba573d6000803e3d6000fd5b5060018260e001901515908115158152505050610933565b8060a0015173ffffffffffffffffffffffffffffffffffffffff166108fc82608001519081150290604051600060405180830381858888f19350505050158015610920573d6000803e3d6000fd5b5060008160e00190151590811515815250505b60018160c0019015159081151581525050505050565b600081600001549050919050565b60008135905061096681610c47565b92915050565b60008151905061097b81610c47565b92915050565b60008135905061099081610c5e565b92915050565b6000813590506109a581610c75565b92915050565b6000602082840312156109bd57600080fd5b60006109cb8482850161096c565b91505092915050565b6000806000606084860312156109e957600080fd5b60006109f786828701610957565b9350506020610a0886828701610996565b9250506040610a1986828701610996565b9150509250925092565b600060208284031215610a3557600080fd5b6000610a4384828501610996565b91505092915050565b60008060408385031215610a5f57600080fd5b6000610a6d85828601610996565b9250506020610a7e85828601610981565b9150509250929050565b610a9181610be8565b82525050565b610aa081610ba0565b82525050565b6000610ab3601683610b8f565b9150610abe82610c1e565b602082019050919050565b610ad281610bde565b82525050565b6000606082019050610aed6000830186610a88565b610afa6020830185610a88565b610b076040830184610ac9565b949350505050565b60006020820190508181036000830152610b2881610aa6565b9050919050565b6000602082019050610b446000830184610ac9565b92915050565b6000608082019050610b5f6000830187610ac9565b610b6c6020830186610a97565b610b796040830185610ac9565b610b866060830184610ac9565b95945050505050565b600082825260208201905092915050565b6000610bab82610bbe565b9050919050565b60008115159050919050565b600073ffffffffffffffffffffffffffffffffffffffff82169050919050565b6000819050919050565b6000610bf382610bfa565b9050919050565b6000610c0582610c0c565b9050919050565b6000610c1782610bbe565b9050919050565b7f596f7520646f206e6f74206f776e20746865204e465400000000000000000000600082015250565b610c5081610ba0565b8114610c5b57600080fd5b50565b610c6781610bb2565b8114610c7257600080fd5b50565b610c7e81610bde565b8114610c8957600080fd5b5056fea26469706673582212203e8e04284d6b0fbf4294b384f3df981c30f70e70b202ded2950360e91ca07ea364736f6c63430008040033",
  "linkReferences": {},
  "deployedLinkReferences": {}
}