{
  "_format": "hh-sol-artifact-1",
  "contractName": "ArtSeaMarket",
  "sourceName": "contracts/ArtSeaMarket.sol",
  "abi": [
    {
      "anonymous": false,
      "inputs": [
        {
          "indexed": false,
          "internalType": "uint256",
          "name": "auctionId",
          "type": "uint256"
        },
        {
          "indexed": false,
          "internalType": "address",
          "name": "tokenAddress",
          "type": "address"
        },
        {
          "indexed": false,
          "internalType": "uint256",
          "name": "tokenId",
          "type": "uint256"
        },
        {
          "indexed": false,
          "internalType": "uint256",
          "name": "minBidAmount",
          "type": "uint256"
        }
      ],
      "name": "AuctionCreated",
      "type": "event"
    },
    {
      "anonymous": false,
      "inputs": [
        {
          "indexed": false,
          "internalType": "uint256",
          "name": "auctionId",
          "type": "uint256"
        },
        {
          "indexed": false,
          "internalType": "address payable",
          "name": "bidder",
          "type": "address"
        },
        {
          "indexed": false,
          "internalType": "uint256",
          "name": "bidAmount",
          "type": "uint256"
        }
      ],
      "name": "BidPlaced",
      "type": "event"
    },
    {
      "inputs": [],
      "name": "auctionIds",
      "outputs": [
        {
          "internalType": "uint256",
          "name": "_value",
          "type": "uint256"
        }
      ],
      "stateMutability": "view",
      "type": "function"
    },
    {
      "inputs": [
        {
          "internalType": "uint256",
          "name": "",
          "type": "uint256"
        }
      ],
      "name": "auctions",
      "outputs": [
        {
          "internalType": "address payable",
          "name": "ownerAddress",
          "type": "address"
        },
        {
          "internalType": "address",
          "name": "tokenAddress",
          "type": "address"
        },
        {
          "internalType": "uint256",
          "name": "tokenId",
          "type": "uint256"
        },
        {
          "internalType": "uint256",
          "name": "minBidAmount",
          "type": "uint256"
        },
        {
          "internalType": "uint256",
          "name": "createdOn",
          "type": "uint256"
        },
        {
          "internalType": "uint256",
          "name": "duration",
          "type": "uint256"
        },
        {
          "internalType": "uint256",
          "name": "highestBidAmount",
          "type": "uint256"
        },
        {
          "internalType": "address payable",
          "name": "highestBidder",
          "type": "address"
        },
        {
          "internalType": "bool",
          "name": "ended",
          "type": "bool"
        },
        {
          "internalType": "bool",
          "name": "sold",
          "type": "bool"
        }
      ],
      "stateMutability": "view",
      "type": "function"
    },
    {
      "inputs": [
        {
          "internalType": "address",
          "name": "tokenAddress",
          "type": "address"
        },
        {
          "internalType": "uint256",
          "name": "tokenId",
          "type": "uint256"
        },
        {
          "internalType": "uint256",
          "name": "minBidAmount",
          "type": "uint256"
        },
        {
          "internalType": "uint256",
          "name": "duration",
          "type": "uint256"
        }
      ],
      "name": "createAuction",
      "outputs": [],
      "stateMutability": "nonpayable",
      "type": "function"
    },
    {
      "inputs": [
        {
          "internalType": "uint256",
          "name": "auctionId",
          "type": "uint256"
        },
        {
          "internalType": "bool",
          "name": "accept",
          "type": "bool"
        }
      ],
      "name": "finalizeAuction",
      "outputs": [],
      "stateMutability": "nonpayable",
      "type": "function"
    },
    {
      "inputs": [
        {
          "internalType": "uint256",
          "name": "auctionId",
          "type": "uint256"
        }
      ],
      "name": "placeBid",
      "outputs": [],
      "stateMutability": "payable",
      "type": "function"
    }
  ],
  "bytecode": "0x608060405234801561001057600080fd5b50611277806100206000396000f3fe60806040526004361061004a5760003560e01c8063077669f71461004f578063571a26a01461007a57806361beb1d7146100c05780638cdaab53146100e95780639979ef4514610112575b600080fd5b34801561005b57600080fd5b5061006461012e565b6040516100719190610fc4565b60405180910390f35b34801561008657600080fd5b506100a1600480360381019061009c9190610d78565b61013a565b6040516100b79a99989796959493929190610ec8565b60405180910390f35b3480156100cc57600080fd5b506100e760048036038101906100e29190610d15565b610218565b005b3480156100f557600080fd5b50610110600480360381019061010b9190610da1565b610582565b005b61012c60048036038101906101279190610d78565b6108ae565b005b60008060000154905081565b6001818154811061014a57600080fd5b90600052602060002090600802016000915090508060000160009054906101000a900473ffffffffffffffffffffffffffffffffffffffff16908060010160009054906101000a900473ffffffffffffffffffffffffffffffffffffffff16908060020154908060030154908060040154908060050154908060060154908060070160009054906101000a900473ffffffffffffffffffffffffffffffffffffffff16908060070160149054906101000a900460ff16908060070160159054906101000a900460ff1690508a565b600084905060008173ffffffffffffffffffffffffffffffffffffffff16636352211e866040518263ffffffff1660e01b81526004016102589190610fc4565b60206040518083038186803b15801561027057600080fd5b505afa158015610284573d6000803e3d6000fd5b505050506040513d601f19601f820116820180604052508101906102a89190610cec565b90503373ffffffffffffffffffffffffffffffffffffffff168173ffffffffffffffffffffffffffffffffffffffff1614610318576040517f08c379a000000000000000000000000000000000000000000000000000000000815260040161030f90610f64565b60405180910390fd5b60006040518061014001604052803373ffffffffffffffffffffffffffffffffffffffff1681526020018873ffffffffffffffffffffffffffffffffffffffff16815260200187815260200186815260200142815260200185815260200160008152602001600073ffffffffffffffffffffffffffffffffffffffff16815260200160001515815260200160001515815250905060006103b86000610c74565b9050600182908060018154018082558091505060019003906000526020600020906008020160009091909190915060008201518160000160006101000a81548173ffffffffffffffffffffffffffffffffffffffff021916908373ffffffffffffffffffffffffffffffffffffffff16021790555060208201518160010160006101000a81548173ffffffffffffffffffffffffffffffffffffffff021916908373ffffffffffffffffffffffffffffffffffffffff16021790555060408201518160020155606082015181600301556080820151816004015560a0820151816005015560c0820151816006015560e08201518160070160006101000a81548173ffffffffffffffffffffffffffffffffffffffff021916908373ffffffffffffffffffffffffffffffffffffffff1602179055506101008201518160070160146101000a81548160ff0219169083151502179055506101208201518160070160156101000a81548160ff021916908315150217905550505061053b6000610c82565b7fc9050d42180a61cb0d9ebb8ad118b62fe6eab12cf12ff752c4a0cc7da9ddf627818989896040516105709493929190611016565b60405180910390a15050505050505050565b6000600183815481106105be577f4e487b7100000000000000000000000000000000000000000000000000000000600052603260045260246000fd5b9060005260206000209060080201604051806101400160405290816000820160009054906101000a900473ffffffffffffffffffffffffffffffffffffffff1673ffffffffffffffffffffffffffffffffffffffff1673ffffffffffffffffffffffffffffffffffffffff1681526020016001820160009054906101000a900473ffffffffffffffffffffffffffffffffffffffff1673ffffffffffffffffffffffffffffffffffffffff1673ffffffffffffffffffffffffffffffffffffffff16815260200160028201548152602001600382015481526020016004820154815260200160058201548152602001600682015481526020016007820160009054906101000a900473ffffffffffffffffffffffffffffffffffffffff1673ffffffffffffffffffffffffffffffffffffffff1673ffffffffffffffffffffffffffffffffffffffff1681526020016007820160149054906101000a900460ff161515151581526020016007820160159054906101000a900460ff16151515158152505090508115610835576000816020015190508073ffffffffffffffffffffffffffffffffffffffff166342842e0e83600001518460e0015185604001516040518463ffffffff1660e01b815260040161079c93929190610e91565b600060405180830381600087803b1580156107b657600080fd5b505af11580156107ca573d6000803e3d6000fd5b50505050816000015173ffffffffffffffffffffffffffffffffffffffff166108fc8360c001519081150290604051600060405180830381858888f1935050505015801561081c573d6000803e3d6000fd5b5060018261012001901515908115158152505050610897565b8060e0015173ffffffffffffffffffffffffffffffffffffffff166108fc8260c001519081150290604051600060405180830381858888f19350505050158015610883573d6000803e3d6000fd5b506000816101200190151590811515815250505b600181610100019015159081151581525050505050565b6000600182815481106108ea577f4e487b7100000000000000000000000000000000000000000000000000000000600052603260045260246000fd5b9060005260206000209060080201604051806101400160405290816000820160009054906101000a900473ffffffffffffffffffffffffffffffffffffffff1673ffffffffffffffffffffffffffffffffffffffff1673ffffffffffffffffffffffffffffffffffffffff1681526020016001820160009054906101000a900473ffffffffffffffffffffffffffffffffffffffff1673ffffffffffffffffffffffffffffffffffffffff1673ffffffffffffffffffffffffffffffffffffffff16815260200160028201548152602001600382015481526020016004820154815260200160058201548152602001600682015481526020016007820160009054906101000a900473ffffffffffffffffffffffffffffffffffffffff1673ffffffffffffffffffffffffffffffffffffffff1673ffffffffffffffffffffffffffffffffffffffff1681526020016007820160149054906101000a900460ff161515151581526020016007820160159054906101000a900460ff16151515158152505090508060c001513411610ab6576040517f08c379a0000000000000000000000000000000000000000000000000000000008152600401610aad90610f84565b60405180910390fd5b8060a001518160800151610aca919061106c565b421115610b0c576040517f08c379a0000000000000000000000000000000000000000000000000000000008152600401610b0390610fa4565b60405180910390fd5b8060e0015173ffffffffffffffffffffffffffffffffffffffff166108fc8260c001519081150290604051600060405180830381858888f19350505050158015610b5a573d6000803e3d6000fd5b503460018381548110610b96577f4e487b7100000000000000000000000000000000000000000000000000000000600052603260045260246000fd5b9060005260206000209060080201600601819055503360018381548110610be6577f4e487b7100000000000000000000000000000000000000000000000000000000600052603260045260246000fd5b906000526020600020906008020160070160006101000a81548173ffffffffffffffffffffffffffffffffffffffff021916908373ffffffffffffffffffffffffffffffffffffffff1602179055507f0e54eff26401bf69b81b26f60bd85ef47f5d85275c1d268d84f68d6897431c47823334604051610c6893929190610fdf565b60405180910390a15050565b600081600001549050919050565b6001816000016000828254019250508190555050565b600081359050610ca7816111fc565b92915050565b600081519050610cbc816111fc565b92915050565b600081359050610cd181611213565b92915050565b600081359050610ce68161122a565b92915050565b600060208284031215610cfe57600080fd5b6000610d0c84828501610cad565b91505092915050565b60008060008060808587031215610d2b57600080fd5b6000610d3987828801610c98565b9450506020610d4a87828801610cd7565b9350506040610d5b87828801610cd7565b9250506060610d6c87828801610cd7565b91505092959194509250565b600060208284031215610d8a57600080fd5b6000610d9884828501610cd7565b91505092915050565b60008060408385031215610db457600080fd5b6000610dc285828601610cd7565b9250506020610dd385828601610cc2565b9150509250929050565b610de68161111c565b82525050565b610df5816110d4565b82525050565b610e04816110c2565b82525050565b610e13816110e6565b82525050565b6000610e2660168361105b565b9150610e3182611181565b602082019050919050565b6000610e49601a8361105b565b9150610e54826111aa565b602082019050919050565b6000610e6c60208361105b565b9150610e77826111d3565b602082019050919050565b610e8b81611112565b82525050565b6000606082019050610ea66000830186610ddd565b610eb36020830185610ddd565b610ec06040830184610e82565b949350505050565b600061014082019050610ede600083018d610dec565b610eeb602083018c610dfb565b610ef8604083018b610e82565b610f05606083018a610e82565b610f126080830189610e82565b610f1f60a0830188610e82565b610f2c60c0830187610e82565b610f3960e0830186610dec565b610f47610100830185610e0a565b610f55610120830184610e0a565b9b9a5050505050505050505050565b60006020820190508181036000830152610f7d81610e19565b9050919050565b60006020820190508181036000830152610f9d81610e3c565b9050919050565b60006020820190508181036000830152610fbd81610e5f565b9050919050565b6000602082019050610fd96000830184610e82565b92915050565b6000606082019050610ff46000830186610e82565b6110016020830185610dec565b61100e6040830184610e82565b949350505050565b600060808201905061102b6000830187610e82565b6110386020830186610dfb565b6110456040830185610e82565b6110526060830184610e82565b95945050505050565b600082825260208201905092915050565b600061107782611112565b915061108283611112565b9250827fffffffffffffffffffffffffffffffffffffffffffffffffffffffffffffffff038211156110b7576110b6611152565b5b828201905092915050565b60006110cd826110f2565b9050919050565b60006110df826110f2565b9050919050565b60008115159050919050565b600073ffffffffffffffffffffffffffffffffffffffff82169050919050565b6000819050919050565b60006111278261112e565b9050919050565b600061113982611140565b9050919050565b600061114b826110f2565b9050919050565b7f4e487b7100000000000000000000000000000000000000000000000000000000600052601160045260246000fd5b7f596f7520646f206e6f74206f776e20746865204e465400000000000000000000600082015250565b7f596f75722062696420616d6f756e7420697320746f6f206c6f77000000000000600082015250565b7f5468652061756374696f6e206861732065787069726564206f7220656e646564600082015250565b611205816110c2565b811461121057600080fd5b50565b61121c816110e6565b811461122757600080fd5b50565b61123381611112565b811461123e57600080fd5b5056fea26469706673582212203607076908cc3e2a55dda97b0c561ea324b81440993a650483d2d844c651895364736f6c63430008040033",
  "linkReferences": {},
  "deployedLinkReferences": {}
}