{
  "_format": "hh-sol-artifact-1",
  "contractName": "ArtSeaMarket",
  "sourceName": "contracts/ArtSeaMarket.sol",
  "abi": [
    {
      "anonymous": false,
      "inputs": [
        {
          "indexed": false,
          "internalType": "uint256",
          "name": "auctionId",
          "type": "uint256"
        },
        {
          "indexed": false,
          "internalType": "address",
          "name": "tokenAddress",
          "type": "address"
        },
        {
          "indexed": false,
          "internalType": "uint256",
          "name": "tokenId",
          "type": "uint256"
        },
        {
          "indexed": false,
          "internalType": "uint256",
          "name": "minBidAmount",
          "type": "uint256"
        }
      ],
      "name": "AuctionCreated",
      "type": "event"
    },
    {
      "anonymous": false,
      "inputs": [
        {
          "indexed": false,
          "internalType": "uint256",
          "name": "auctionId",
          "type": "uint256"
        },
        {
          "indexed": false,
          "internalType": "address payable",
          "name": "bidder",
          "type": "address"
        },
        {
          "indexed": false,
          "internalType": "uint256",
          "name": "bidAmount",
          "type": "uint256"
        }
      ],
      "name": "BidPlaced",
      "type": "event"
    },
    {
      "inputs": [],
      "name": "auctionIds",
      "outputs": [
        {
          "internalType": "uint256",
          "name": "_value",
          "type": "uint256"
        }
      ],
      "stateMutability": "view",
      "type": "function"
    },
    {
      "inputs": [
        {
          "internalType": "uint256",
          "name": "",
          "type": "uint256"
        }
      ],
      "name": "auctions",
      "outputs": [
        {
          "internalType": "address payable",
          "name": "ownerAddress",
          "type": "address"
        },
        {
          "internalType": "address",
          "name": "tokenAddress",
          "type": "address"
        },
        {
          "internalType": "uint256",
          "name": "tokenId",
          "type": "uint256"
        },
        {
          "internalType": "uint256",
          "name": "minBidAmount",
          "type": "uint256"
        },
        {
          "internalType": "uint256",
          "name": "highestBidAmount",
          "type": "uint256"
        },
        {
          "internalType": "address payable",
          "name": "highestBidder",
          "type": "address"
        },
        {
          "internalType": "bool",
          "name": "ended",
          "type": "bool"
        },
        {
          "internalType": "bool",
          "name": "sold",
          "type": "bool"
        }
      ],
      "stateMutability": "view",
      "type": "function"
    },
    {
      "inputs": [
        {
          "internalType": "address",
          "name": "tokenAddress",
          "type": "address"
        },
        {
          "internalType": "uint256",
          "name": "tokenId",
          "type": "uint256"
        },
        {
          "internalType": "uint256",
          "name": "minBidAmount",
          "type": "uint256"
        }
      ],
      "name": "createAuction",
      "outputs": [],
      "stateMutability": "nonpayable",
      "type": "function"
    },
    {
      "inputs": [
        {
          "internalType": "uint256",
          "name": "auctionId",
          "type": "uint256"
        },
        {
          "internalType": "bool",
          "name": "accept",
          "type": "bool"
        }
      ],
      "name": "finalizeAuction",
      "outputs": [],
      "stateMutability": "nonpayable",
      "type": "function"
    },
    {
      "inputs": [
        {
          "internalType": "uint256",
          "name": "auctionId",
          "type": "uint256"
        }
      ],
      "name": "placeBid",
      "outputs": [],
      "stateMutability": "payable",
      "type": "function"
    }
  ],
  "bytecode": "0x608060405234801561001057600080fd5b50611277806100206000396000f3fe60806040526004361061004a5760003560e01c8063077669f71461004f578063571a26a01461007a5780638cdaab53146100be5780639979ef45146100e7578063abb9405114610103575b600080fd5b34801561005b57600080fd5b5061006461012c565b6040516100719190611049565b60405180910390f35b34801561008657600080fd5b506100a1600480360381019061009c9190610e1b565b610138565b6040516100b5989796959493929190610f6b565b60405180910390f35b3480156100ca57600080fd5b506100e560048036038101906100e09190610e44565b61020a565b005b61010160048036038101906100fc9190610e1b565b610688565b005b34801561010f57600080fd5b5061012a60048036038101906101259190610dcc565b6109e4565b005b60008060000154905081565b6001818154811061014857600080fd5b90600052602060002090600602016000915090508060000160009054906101000a900473ffffffffffffffffffffffffffffffffffffffff16908060010160009054906101000a900473ffffffffffffffffffffffffffffffffffffffff16908060020154908060030154908060040154908060050160009054906101000a900473ffffffffffffffffffffffffffffffffffffffff16908060050160149054906101000a900460ff16908060050160159054906101000a900460ff16905088565b600060018381548110610246577f4e487b7100000000000000000000000000000000000000000000000000000000600052603260045260246000fd5b9060005260206000209060060201604051806101000160405290816000820160009054906101000a900473ffffffffffffffffffffffffffffffffffffffff1673ffffffffffffffffffffffffffffffffffffffff1673ffffffffffffffffffffffffffffffffffffffff1681526020016001820160009054906101000a900473ffffffffffffffffffffffffffffffffffffffff1673ffffffffffffffffffffffffffffffffffffffff1673ffffffffffffffffffffffffffffffffffffffff1681526020016002820154815260200160038201548152602001600482015481526020016005820160009054906101000a900473ffffffffffffffffffffffffffffffffffffffff1673ffffffffffffffffffffffffffffffffffffffff1673ffffffffffffffffffffffffffffffffffffffff1681526020016005820160149054906101000a900460ff161515151581526020016005820160159054906101000a900460ff16151515158152505090503373ffffffffffffffffffffffffffffffffffffffff16816000015173ffffffffffffffffffffffffffffffffffffffff161461042a576040517f08c379a000000000000000000000000000000000000000000000000000000000815260040161042190611029565b60405180910390fd5b811561056c576000816020015190508073ffffffffffffffffffffffffffffffffffffffff166342842e0e83600001518460a0015185604001516040518463ffffffff1660e01b815260040161048293929190610f34565b600060405180830381600087803b15801561049c57600080fd5b505af11580156104b0573d6000803e3d6000fd5b50505050816000015173ffffffffffffffffffffffffffffffffffffffff166108fc83608001519081150290604051600060405180830381858888f19350505050158015610502573d6000803e3d6000fd5b50600180858154811061053e577f4e487b7100000000000000000000000000000000000000000000000000000000600052603260045260246000fd5b906000526020600020906006020160050160156101000a81548160ff02191690831515021790555050610620565b8060a0015173ffffffffffffffffffffffffffffffffffffffff166108fc82608001519081150290604051600060405180830381858888f193505050501580156105ba573d6000803e3d6000fd5b506000600184815481106105f7577f4e487b7100000000000000000000000000000000000000000000000000000000600052603260045260246000fd5b906000526020600020906006020160050160156101000a81548160ff0219169083151502179055505b600180848154811061065b577f4e487b7100000000000000000000000000000000000000000000000000000000600052603260045260246000fd5b906000526020600020906006020160050160146101000a81548160ff021916908315150217905550505050565b6000600182815481106106c4577f4e487b7100000000000000000000000000000000000000000000000000000000600052603260045260246000fd5b9060005260206000209060060201604051806101000160405290816000820160009054906101000a900473ffffffffffffffffffffffffffffffffffffffff1673ffffffffffffffffffffffffffffffffffffffff1673ffffffffffffffffffffffffffffffffffffffff1681526020016001820160009054906101000a900473ffffffffffffffffffffffffffffffffffffffff1673ffffffffffffffffffffffffffffffffffffffff1673ffffffffffffffffffffffffffffffffffffffff1681526020016002820154815260200160038201548152602001600482015481526020016005820160009054906101000a900473ffffffffffffffffffffffffffffffffffffffff1673ffffffffffffffffffffffffffffffffffffffff1673ffffffffffffffffffffffffffffffffffffffff1681526020016005820160149054906101000a900460ff161515151581526020016005820160159054906101000a900460ff16151515158152505090508060800151341161087c576040517f08c379a000000000000000000000000000000000000000000000000000000000815260040161087390611009565b60405180910390fd5b8060a0015173ffffffffffffffffffffffffffffffffffffffff166108fc82608001519081150290604051600060405180830381858888f193505050501580156108ca573d6000803e3d6000fd5b503460018381548110610906577f4e487b7100000000000000000000000000000000000000000000000000000000600052603260045260246000fd5b9060005260206000209060060201600401819055503360018381548110610956577f4e487b7100000000000000000000000000000000000000000000000000000000600052603260045260246000fd5b906000526020600020906006020160050160006101000a81548173ffffffffffffffffffffffffffffffffffffffff021916908373ffffffffffffffffffffffffffffffffffffffff1602179055507f0e54eff26401bf69b81b26f60bd85ef47f5d85275c1d268d84f68d6897431c478233346040516109d893929190611064565b60405180910390a15050565b600083905060008173ffffffffffffffffffffffffffffffffffffffff16636352211e856040518263ffffffff1660e01b8152600401610a249190611049565b60206040518083038186803b158015610a3c57600080fd5b505afa158015610a50573d6000803e3d6000fd5b505050506040513d601f19601f82011682018060405250810190610a749190610da3565b90503373ffffffffffffffffffffffffffffffffffffffff168173ffffffffffffffffffffffffffffffffffffffff1614610ae4576040517f08c379a0000000000000000000000000000000000000000000000000000000008152600401610adb90610fe9565b60405180910390fd5b60006040518061010001604052803373ffffffffffffffffffffffffffffffffffffffff1681526020018773ffffffffffffffffffffffffffffffffffffffff16815260200186815260200185815260200160008152602001600073ffffffffffffffffffffffffffffffffffffffff1681526020016000151581526020016000151581525090506000610b786000610d2b565b9050600182908060018154018082558091505060019003906000526020600020906006020160009091909190915060008201518160000160006101000a81548173ffffffffffffffffffffffffffffffffffffffff021916908373ffffffffffffffffffffffffffffffffffffffff16021790555060208201518160010160006101000a81548173ffffffffffffffffffffffffffffffffffffffff021916908373ffffffffffffffffffffffffffffffffffffffff16021790555060408201518160020155606082015181600301556080820151816004015560a08201518160050160006101000a81548173ffffffffffffffffffffffffffffffffffffffff021916908373ffffffffffffffffffffffffffffffffffffffff16021790555060c08201518160050160146101000a81548160ff02191690831515021790555060e08201518160050160156101000a81548160ff0219169083151502179055505050610ce56000610d39565b7fc9050d42180a61cb0d9ebb8ad118b62fe6eab12cf12ff752c4a0cc7da9ddf62781888888604051610d1a949392919061109b565b60405180910390a150505050505050565b600081600001549050919050565b6001816000016000828254019250508190555050565b600081359050610d5e816111fc565b92915050565b600081519050610d73816111fc565b92915050565b600081359050610d8881611213565b92915050565b600081359050610d9d8161122a565b92915050565b600060208284031215610db557600080fd5b6000610dc384828501610d64565b91505092915050565b600080600060608486031215610de157600080fd5b6000610def86828701610d4f565b9350506020610e0086828701610d8e565b9250506040610e1186828701610d8e565b9150509250925092565b600060208284031215610e2d57600080fd5b6000610e3b84828501610d8e565b91505092915050565b60008060408385031215610e5757600080fd5b6000610e6585828601610d8e565b9250506020610e7685828601610d79565b9150509250929050565b610e898161114b565b82525050565b610e9881611103565b82525050565b610ea7816110f1565b82525050565b610eb681611115565b82525050565b6000610ec96016836110e0565b9150610ed482611181565b602082019050919050565b6000610eec6013836110e0565b9150610ef7826111aa565b602082019050919050565b6000610f0f6016836110e0565b9150610f1a826111d3565b602082019050919050565b610f2e81611141565b82525050565b6000606082019050610f496000830186610e80565b610f566020830185610e80565b610f636040830184610f25565b949350505050565b600061010082019050610f81600083018b610e8f565b610f8e602083018a610e9e565b610f9b6040830189610f25565b610fa86060830188610f25565b610fb56080830187610f25565b610fc260a0830186610e8f565b610fcf60c0830185610ead565b610fdc60e0830184610ead565b9998505050505050505050565b6000602082019050818103600083015261100281610ebc565b9050919050565b6000602082019050818103600083015261102281610edf565b9050919050565b6000602082019050818103600083015261104281610f02565b9050919050565b600060208201905061105e6000830184610f25565b92915050565b60006060820190506110796000830186610f25565b6110866020830185610e8f565b6110936040830184610f25565b949350505050565b60006080820190506110b06000830187610f25565b6110bd6020830186610e9e565b6110ca6040830185610f25565b6110d76060830184610f25565b95945050505050565b600082825260208201905092915050565b60006110fc82611121565b9050919050565b600061110e82611121565b9050919050565b60008115159050919050565b600073ffffffffffffffffffffffffffffffffffffffff82169050919050565b6000819050919050565b60006111568261115d565b9050919050565b60006111688261116f565b9050919050565b600061117a82611121565b9050919050565b7f596f7520646f206e6f74206f776e20746865204e465400000000000000000000600082015250565b7f596f75722062696420697320746f6f206c6f7700000000000000000000000000600082015250565b7f596f7520617265206e6f74207468652073656c6c657200000000000000000000600082015250565b611205816110f1565b811461121057600080fd5b50565b61121c81611115565b811461122757600080fd5b50565b61123381611141565b811461123e57600080fd5b5056fea2646970667358221220a02c932ba0bb5d36ccb55adf40ef5a7348600e70a30ff5c783f98764257c850f64736f6c63430008040033",
  "linkReferences": {},
  "deployedLinkReferences": {}
}