{
  "_format": "hh-sol-artifact-1",
  "contractName": "ArtSeaMarket",
  "sourceName": "contracts/ArtSeaMarket.sol",
  "abi": [
    {
      "anonymous": false,
      "inputs": [
        {
          "indexed": false,
          "internalType": "uint256",
          "name": "auctionId",
          "type": "uint256"
        },
        {
          "indexed": false,
          "internalType": "address",
          "name": "tokenAddress",
          "type": "address"
        },
        {
          "indexed": false,
          "internalType": "uint256",
          "name": "tokenId",
          "type": "uint256"
        },
        {
          "indexed": false,
          "internalType": "uint256",
          "name": "minBidAmount",
          "type": "uint256"
        }
      ],
      "name": "AuctionCreated",
      "type": "event"
    },
    {
      "anonymous": false,
      "inputs": [
        {
          "indexed": false,
          "internalType": "uint256",
          "name": "auctionId",
          "type": "uint256"
        },
        {
          "indexed": false,
          "internalType": "address payable",
          "name": "bidder",
          "type": "address"
        },
        {
          "indexed": false,
          "internalType": "uint256",
          "name": "bidAmount",
          "type": "uint256"
        }
      ],
      "name": "BidPlaced",
      "type": "event"
    },
    {
      "inputs": [],
      "name": "auctionIds",
      "outputs": [
        {
          "internalType": "uint256",
          "name": "_value",
          "type": "uint256"
        }
      ],
      "stateMutability": "view",
      "type": "function"
    },
    {
      "inputs": [
        {
          "internalType": "uint256",
          "name": "",
          "type": "uint256"
        }
      ],
      "name": "auctionIsLive",
      "outputs": [
        {
          "internalType": "bool",
          "name": "",
          "type": "bool"
        }
      ],
      "stateMutability": "view",
      "type": "function"
    },
    {
      "inputs": [
        {
          "internalType": "uint256",
          "name": "",
          "type": "uint256"
        }
      ],
      "name": "auctions",
      "outputs": [
        {
          "internalType": "address payable",
          "name": "ownerAddress",
          "type": "address"
        },
        {
          "internalType": "address",
          "name": "tokenAddress",
          "type": "address"
        },
        {
          "internalType": "uint256",
          "name": "tokenId",
          "type": "uint256"
        },
        {
          "internalType": "uint256",
          "name": "minBidAmount",
          "type": "uint256"
        },
        {
          "internalType": "uint256",
          "name": "highestBidAmount",
          "type": "uint256"
        },
        {
          "internalType": "address payable",
          "name": "highestBidder",
          "type": "address"
        },
        {
          "internalType": "bool",
          "name": "sold",
          "type": "bool"
        }
      ],
      "stateMutability": "view",
      "type": "function"
    },
    {
      "inputs": [
        {
          "internalType": "address",
          "name": "tokenAddress",
          "type": "address"
        },
        {
          "internalType": "uint256",
          "name": "tokenId",
          "type": "uint256"
        },
        {
          "internalType": "uint256",
          "name": "minBidAmount",
          "type": "uint256"
        }
      ],
      "name": "createAuction",
      "outputs": [],
      "stateMutability": "nonpayable",
      "type": "function"
    },
    {
      "inputs": [
        {
          "internalType": "uint256",
          "name": "auctionId",
          "type": "uint256"
        },
        {
          "internalType": "bool",
          "name": "accept",
          "type": "bool"
        }
      ],
      "name": "finalizeAuction",
      "outputs": [],
      "stateMutability": "nonpayable",
      "type": "function"
    },
    {
      "inputs": [],
      "name": "liveAuctionIds",
      "outputs": [
        {
          "internalType": "uint256[]",
          "name": "",
          "type": "uint256[]"
        }
      ],
      "stateMutability": "view",
      "type": "function"
    },
    {
      "inputs": [
        {
          "internalType": "uint256",
          "name": "auctionId",
          "type": "uint256"
        }
      ],
      "name": "placeBid",
      "outputs": [],
      "stateMutability": "payable",
      "type": "function"
    }
  ],
  "bytecode": "0x608060405234801561001057600080fd5b50611672806100206000396000f3fe6080604052600436106100705760003560e01c80638cdaab531161004e5780638cdaab53146101205780639979ef4514610149578063abb9405114610165578063b866a7b81461018e57610070565b8063073272cc14610075578063077669f7146100b2578063571a26a0146100dd575b600080fd5b34801561008157600080fd5b5061009c600480360381019061009791906110b2565b6101b9565b6040516100a99190611318565b60405180910390f35b3480156100be57600080fd5b506100c76101d9565b6040516100d49190611393565b60405180910390f35b3480156100e957600080fd5b5061010460048036038101906100ff91906110b2565b6101e5565b6040516101179796959493929190611287565b60405180910390f35b34801561012c57600080fd5b50610147600480360381019061014291906110db565b6102a4565b005b610163600480360381019061015e91906110b2565b6106cf565b005b34801561017157600080fd5b5061018c60048036038101906101879190611063565b610a0f565b005b34801561019a57600080fd5b506101a3610d58565b6040516101b091906112f6565b60405180910390f35b60026020528060005260406000206000915054906101000a900460ff1681565b60008060000154905081565b600181815481106101f557600080fd5b90600052602060002090600602016000915090508060000160009054906101000a900473ffffffffffffffffffffffffffffffffffffffff16908060010160009054906101000a900473ffffffffffffffffffffffffffffffffffffffff16908060020154908060030154908060040154908060050160009054906101000a900473ffffffffffffffffffffffffffffffffffffffff16908060050160149054906101000a900460ff16905087565b6000600183815481106102e0577f4e487b7100000000000000000000000000000000000000000000000000000000600052603260045260246000fd5b90600052602060002090600602016040518060e00160405290816000820160009054906101000a900473ffffffffffffffffffffffffffffffffffffffff1673ffffffffffffffffffffffffffffffffffffffff1673ffffffffffffffffffffffffffffffffffffffff1681526020016001820160009054906101000a900473ffffffffffffffffffffffffffffffffffffffff1673ffffffffffffffffffffffffffffffffffffffff1673ffffffffffffffffffffffffffffffffffffffff1681526020016002820154815260200160038201548152602001600482015481526020016005820160009054906101000a900473ffffffffffffffffffffffffffffffffffffffff1673ffffffffffffffffffffffffffffffffffffffff1673ffffffffffffffffffffffffffffffffffffffff1681526020016005820160149054906101000a900460ff16151515158152505090503373ffffffffffffffffffffffffffffffffffffffff16816000015173ffffffffffffffffffffffffffffffffffffffff16146104a8576040517f08c379a000000000000000000000000000000000000000000000000000000000815260040161049f90611373565b60405180910390fd5b81156105ea576000816020015190508073ffffffffffffffffffffffffffffffffffffffff166342842e0e83600001518460a0015185604001516040518463ffffffff1660e01b815260040161050093929190611250565b600060405180830381600087803b15801561051a57600080fd5b505af115801561052e573d6000803e3d6000fd5b50505050816000015173ffffffffffffffffffffffffffffffffffffffff166108fc83608001519081150290604051600060405180830381858888f19350505050158015610580573d6000803e3d6000fd5b5060018085815481106105bc577f4e487b7100000000000000000000000000000000000000000000000000000000600052603260045260246000fd5b906000526020600020906006020160050160146101000a81548160ff0219169083151502179055505061069e565b8060a0015173ffffffffffffffffffffffffffffffffffffffff166108fc82608001519081150290604051600060405180830381858888f19350505050158015610638573d6000803e3d6000fd5b50600060018481548110610675577f4e487b7100000000000000000000000000000000000000000000000000000000600052603260045260246000fd5b906000526020600020906006020160050160146101000a81548160ff0219169083151502179055505b60006002600085815260200190815260200160002060006101000a81548160ff021916908315150217905550505050565b60006001828154811061070b577f4e487b7100000000000000000000000000000000000000000000000000000000600052603260045260246000fd5b90600052602060002090600602016040518060e00160405290816000820160009054906101000a900473ffffffffffffffffffffffffffffffffffffffff1673ffffffffffffffffffffffffffffffffffffffff1673ffffffffffffffffffffffffffffffffffffffff1681526020016001820160009054906101000a900473ffffffffffffffffffffffffffffffffffffffff1673ffffffffffffffffffffffffffffffffffffffff1673ffffffffffffffffffffffffffffffffffffffff1681526020016002820154815260200160038201548152602001600482015481526020016005820160009054906101000a900473ffffffffffffffffffffffffffffffffffffffff1673ffffffffffffffffffffffffffffffffffffffff1673ffffffffffffffffffffffffffffffffffffffff1681526020016005820160149054906101000a900460ff1615151515815250509050806080015134116108a7576040517f08c379a000000000000000000000000000000000000000000000000000000000815260040161089e90611353565b60405180910390fd5b8060a0015173ffffffffffffffffffffffffffffffffffffffff166108fc82608001519081150290604051600060405180830381858888f193505050501580156108f5573d6000803e3d6000fd5b503460018381548110610931577f4e487b7100000000000000000000000000000000000000000000000000000000600052603260045260246000fd5b9060005260206000209060060201600401819055503360018381548110610981577f4e487b7100000000000000000000000000000000000000000000000000000000600052603260045260246000fd5b906000526020600020906006020160050160006101000a81548173ffffffffffffffffffffffffffffffffffffffff021916908373ffffffffffffffffffffffffffffffffffffffff1602179055507f0e54eff26401bf69b81b26f60bd85ef47f5d85275c1d268d84f68d6897431c47823334604051610a03939291906113ae565b60405180910390a15050565b600083905060008173ffffffffffffffffffffffffffffffffffffffff16636352211e856040518263ffffffff1660e01b8152600401610a4f9190611393565b60206040518083038186803b158015610a6757600080fd5b505afa158015610a7b573d6000803e3d6000fd5b505050506040513d601f19601f82011682018060405250810190610a9f919061103a565b90503373ffffffffffffffffffffffffffffffffffffffff168173ffffffffffffffffffffffffffffffffffffffff1614610b0f576040517f08c379a0000000000000000000000000000000000000000000000000000000008152600401610b0690611333565b60405180910390fd5b60006040518060e001604052803373ffffffffffffffffffffffffffffffffffffffff1681526020018773ffffffffffffffffffffffffffffffffffffffff16815260200186815260200185815260200160008152602001600073ffffffffffffffffffffffffffffffffffffffff1681526020016000151581525090506000610b996000610fc2565b905060016002600083815260200190815260200160002060006101000a81548160ff021916908315150217905550600182908060018154018082558091505060019003906000526020600020906006020160009091909190915060008201518160000160006101000a81548173ffffffffffffffffffffffffffffffffffffffff021916908373ffffffffffffffffffffffffffffffffffffffff16021790555060208201518160010160006101000a81548173ffffffffffffffffffffffffffffffffffffffff021916908373ffffffffffffffffffffffffffffffffffffffff16021790555060408201518160020155606082015181600301556080820151816004015560a08201518160050160006101000a81548173ffffffffffffffffffffffffffffffffffffffff021916908373ffffffffffffffffffffffffffffffffffffffff16021790555060c08201518160050160146101000a81548160ff0219169083151502179055505050610d126000610fd0565b7fc9050d42180a61cb0d9ebb8ad118b62fe6eab12cf12ff752c4a0cc7da9ddf62781888888604051610d4794939291906113e5565b60405180910390a150505050505050565b6060600080610d676000610fc2565b67ffffffffffffffff811115610da6577f4e487b7100000000000000000000000000000000000000000000000000000000600052604160045260246000fd5b604051908082528060200260200182016040528015610dd45781602001602082028036833780820191505090505b50905060005b610de46000610fc2565b811015610e79576002600082815260200190815260200160002060009054906101000a900460ff1615610e665780828481518110610e4b577f4e487b7100000000000000000000000000000000000000000000000000000000600052603260045260246000fd5b6020026020010181815250508280610e6290611504565b9350505b8080610e7190611504565b915050610dda565b5060008267ffffffffffffffff811115610ebc577f4e487b7100000000000000000000000000000000000000000000000000000000600052604160045260246000fd5b604051908082528060200260200182016040528015610eea5781602001602082028036833780820191505090505b50905060005b83811015610fb8576002600082815260200190815260200160002060009054906101000a900460ff1615610fa557828181518110610f57577f4e487b7100000000000000000000000000000000000000000000000000000000600052603260045260246000fd5b6020026020010151828281518110610f98577f4e487b7100000000000000000000000000000000000000000000000000000000600052603260045260246000fd5b6020026020010181815250505b8080610fb090611504565b915050610ef0565b5080935050505090565b600081600001549050919050565b6001816000016000828254019250508190555050565b600081359050610ff5816115f7565b92915050565b60008151905061100a816115f7565b92915050565b60008135905061101f8161160e565b92915050565b60008135905061103481611625565b92915050565b60006020828403121561104c57600080fd5b600061105a84828501610ffb565b91505092915050565b60008060006060848603121561107857600080fd5b600061108686828701610fe6565b935050602061109786828701611025565b92505060406110a886828701611025565b9150509250925092565b6000602082840312156110c457600080fd5b60006110d284828501611025565b91505092915050565b600080604083850312156110ee57600080fd5b60006110fc85828601611025565b925050602061110d85828601611010565b9150509250929050565b60006111238383611232565b60208301905092915050565b611138816114ce565b82525050565b61114781611486565b82525050565b61115681611474565b82525050565b60006111678261143a565b6111718185611452565b935061117c8361142a565b8060005b838110156111ad5781516111948882611117565b975061119f83611445565b925050600181019050611180565b5085935050505092915050565b6111c381611498565b82525050565b60006111d6601683611463565b91506111e18261157c565b602082019050919050565b60006111f9601383611463565b9150611204826115a5565b602082019050919050565b600061121c601683611463565b9150611227826115ce565b602082019050919050565b61123b816114c4565b82525050565b61124a816114c4565b82525050565b6000606082019050611265600083018661112f565b611272602083018561112f565b61127f6040830184611241565b949350505050565b600060e08201905061129c600083018a61113e565b6112a9602083018961114d565b6112b66040830188611241565b6112c36060830187611241565b6112d06080830186611241565b6112dd60a083018561113e565b6112ea60c08301846111ba565b98975050505050505050565b60006020820190508181036000830152611310818461115c565b905092915050565b600060208201905061132d60008301846111ba565b92915050565b6000602082019050818103600083015261134c816111c9565b9050919050565b6000602082019050818103600083015261136c816111ec565b9050919050565b6000602082019050818103600083015261138c8161120f565b9050919050565b60006020820190506113a86000830184611241565b92915050565b60006060820190506113c36000830186611241565b6113d0602083018561113e565b6113dd6040830184611241565b949350505050565b60006080820190506113fa6000830187611241565b611407602083018661114d565b6114146040830185611241565b6114216060830184611241565b95945050505050565b6000819050602082019050919050565b600081519050919050565b6000602082019050919050565b600082825260208201905092915050565b600082825260208201905092915050565b600061147f826114a4565b9050919050565b6000611491826114a4565b9050919050565b60008115159050919050565b600073ffffffffffffffffffffffffffffffffffffffff82169050919050565b6000819050919050565b60006114d9826114e0565b9050919050565b60006114eb826114f2565b9050919050565b60006114fd826114a4565b9050919050565b600061150f826114c4565b91507fffffffffffffffffffffffffffffffffffffffffffffffffffffffffffffffff8214156115425761154161154d565b5b600182019050919050565b7f4e487b7100000000000000000000000000000000000000000000000000000000600052601160045260246000fd5b7f596f7520646f206e6f74206f776e20746865204e465400000000000000000000600082015250565b7f596f75722062696420697320746f6f206c6f7700000000000000000000000000600082015250565b7f596f7520617265206e6f74207468652073656c6c657200000000000000000000600082015250565b61160081611474565b811461160b57600080fd5b50565b61161781611498565b811461162257600080fd5b50565b61162e816114c4565b811461163957600080fd5b5056fea2646970667358221220eec90d4d142d887bcaba99e5f8262a4d09a7f55295f94cb36f6f1c87d6a41f4864736f6c63430008040033",
  "linkReferences": {},
  "deployedLinkReferences": {}
}