{
  "_format": "hh-sol-artifact-1",
  "contractName": "ArtSeaMarket",
  "sourceName": "contracts/ArtSeaMarket.sol",
  "abi": [
    {
      "anonymous": false,
      "inputs": [
        {
          "indexed": false,
          "internalType": "uint256",
          "name": "auctionId",
          "type": "uint256"
        },
        {
          "indexed": false,
          "internalType": "address",
          "name": "tokenAddress",
          "type": "address"
        },
        {
          "indexed": false,
          "internalType": "uint256",
          "name": "tokenId",
          "type": "uint256"
        },
        {
          "indexed": false,
          "internalType": "uint256",
          "name": "minBidAmount",
          "type": "uint256"
        }
      ],
      "name": "AuctionCreated",
      "type": "event"
    },
    {
      "anonymous": false,
      "inputs": [
        {
          "indexed": false,
          "internalType": "uint256",
          "name": "auctionId",
          "type": "uint256"
        },
        {
          "indexed": false,
          "internalType": "bool",
          "name": "sold",
          "type": "bool"
        }
      ],
      "name": "AuctionFinalized",
      "type": "event"
    },
    {
      "anonymous": false,
      "inputs": [
        {
          "indexed": false,
          "internalType": "uint256",
          "name": "auctionId",
          "type": "uint256"
        },
        {
          "indexed": false,
          "internalType": "address payable",
          "name": "bidder",
          "type": "address"
        },
        {
          "indexed": false,
          "internalType": "uint256",
          "name": "bidAmount",
          "type": "uint256"
        }
      ],
      "name": "BidPlaced",
      "type": "event"
    },
    {
      "inputs": [],
      "name": "auctionIds",
      "outputs": [
        {
          "internalType": "uint256",
          "name": "_value",
          "type": "uint256"
        }
      ],
      "stateMutability": "view",
      "type": "function"
    },
    {
      "inputs": [
        {
          "internalType": "uint256",
          "name": "",
          "type": "uint256"
        }
      ],
      "name": "auctionIsLive",
      "outputs": [
        {
          "internalType": "bool",
          "name": "",
          "type": "bool"
        }
      ],
      "stateMutability": "view",
      "type": "function"
    },
    {
      "inputs": [
        {
          "internalType": "uint256",
          "name": "",
          "type": "uint256"
        }
      ],
      "name": "auctions",
      "outputs": [
        {
          "internalType": "address payable",
          "name": "ownerAddress",
          "type": "address"
        },
        {
          "internalType": "address",
          "name": "tokenAddress",
          "type": "address"
        },
        {
          "internalType": "uint256",
          "name": "tokenId",
          "type": "uint256"
        },
        {
          "internalType": "uint256",
          "name": "minBidAmount",
          "type": "uint256"
        },
        {
          "internalType": "uint256",
          "name": "highestBidAmount",
          "type": "uint256"
        },
        {
          "internalType": "address payable",
          "name": "highestBidder",
          "type": "address"
        },
        {
          "internalType": "bool",
          "name": "sold",
          "type": "bool"
        }
      ],
      "stateMutability": "view",
      "type": "function"
    },
    {
      "inputs": [
        {
          "internalType": "address",
          "name": "tokenAddress",
          "type": "address"
        },
        {
          "internalType": "uint256",
          "name": "tokenId",
          "type": "uint256"
        },
        {
          "internalType": "uint256",
          "name": "minBidAmount",
          "type": "uint256"
        }
      ],
      "name": "createAuction",
      "outputs": [],
      "stateMutability": "nonpayable",
      "type": "function"
    },
    {
      "inputs": [
        {
          "internalType": "uint256",
          "name": "auctionId",
          "type": "uint256"
        },
        {
          "internalType": "bool",
          "name": "accept",
          "type": "bool"
        }
      ],
      "name": "finalizeAuction",
      "outputs": [],
      "stateMutability": "nonpayable",
      "type": "function"
    },
    {
      "inputs": [],
      "name": "liveAuctionIds",
      "outputs": [
        {
          "internalType": "uint256[]",
          "name": "",
          "type": "uint256[]"
        }
      ],
      "stateMutability": "view",
      "type": "function"
    },
    {
      "inputs": [
        {
          "internalType": "uint256",
          "name": "auctionId",
          "type": "uint256"
        }
      ],
      "name": "placeBid",
      "outputs": [],
      "stateMutability": "payable",
      "type": "function"
    },
    {
      "inputs": [
        {
          "internalType": "address",
          "name": "",
          "type": "address"
        },
        {
          "internalType": "uint256",
          "name": "",
          "type": "uint256"
        }
      ],
      "name": "tokenIsForSale",
      "outputs": [
        {
          "internalType": "bool",
          "name": "",
          "type": "bool"
        }
      ],
      "stateMutability": "view",
      "type": "function"
    }
  ],
  "bytecode": "0x608060405234801561001057600080fd5b50611944806100206000396000f3fe60806040526004361061007b5760003560e01c80639979ef451161004e5780639979ef4514610154578063a049a0b714610170578063abb94051146101ad578063b866a7b8146101d65761007b565b8063073272cc14610080578063077669f7146100bd578063571a26a0146100e85780638cdaab531461012b575b600080fd5b34801561008c57600080fd5b506100a760048036038101906100a291906112ef565b610201565b6040516100b49190611578565b60405180910390f35b3480156100c957600080fd5b506100d2610221565b6040516100df9190611613565b60405180910390f35b3480156100f457600080fd5b5061010f600480360381019061010a91906112ef565b61022d565b60405161012297969594939291906114e7565b60405180910390f35b34801561013757600080fd5b50610152600480360381019061014d9190611318565b6102ec565b005b61016e600480360381019061016991906112ef565b6107c1565b005b34801561017c57600080fd5b5061019760048036038101906101929190611264565b610b01565b6040516101a49190611578565b60405180910390f35b3480156101b957600080fd5b506101d460048036038101906101cf91906112a0565b610b30565b005b3480156101e257600080fd5b506101eb610f80565b6040516101f89190611556565b60405180910390f35b60026020528060005260406000206000915054906101000a900460ff1681565b60008060000154905081565b6001818154811061023d57600080fd5b90600052602060002090600602016000915090508060000160009054906101000a900473ffffffffffffffffffffffffffffffffffffffff16908060010160009054906101000a900473ffffffffffffffffffffffffffffffffffffffff16908060020154908060030154908060040154908060050160009054906101000a900473ffffffffffffffffffffffffffffffffffffffff16908060050160149054906101000a900460ff16905087565b600060018381548110610328577f4e487b7100000000000000000000000000000000000000000000000000000000600052603260045260246000fd5b90600052602060002090600602016040518060e00160405290816000820160009054906101000a900473ffffffffffffffffffffffffffffffffffffffff1673ffffffffffffffffffffffffffffffffffffffff1673ffffffffffffffffffffffffffffffffffffffff1681526020016001820160009054906101000a900473ffffffffffffffffffffffffffffffffffffffff1673ffffffffffffffffffffffffffffffffffffffff1673ffffffffffffffffffffffffffffffffffffffff1681526020016002820154815260200160038201548152602001600482015481526020016005820160009054906101000a900473ffffffffffffffffffffffffffffffffffffffff1673ffffffffffffffffffffffffffffffffffffffff1673ffffffffffffffffffffffffffffffffffffffff1681526020016005820160149054906101000a900460ff16151515158152505090503373ffffffffffffffffffffffffffffffffffffffff16816000015173ffffffffffffffffffffffffffffffffffffffff16146104f0576040517f08c379a00000000000000000000000000000000000000000000000000000000081526004016104e7906115d3565b60405180910390fd5b8115610632576000816020015190508073ffffffffffffffffffffffffffffffffffffffff166342842e0e83600001518460a0015185604001516040518463ffffffff1660e01b8152600401610548939291906114b0565b600060405180830381600087803b15801561056257600080fd5b505af1158015610576573d6000803e3d6000fd5b50505050816000015173ffffffffffffffffffffffffffffffffffffffff166108fc83608001519081150290604051600060405180830381858888f193505050501580156105c8573d6000803e3d6000fd5b506001808581548110610604577f4e487b7100000000000000000000000000000000000000000000000000000000600052603260045260246000fd5b906000526020600020906006020160050160146101000a81548160ff021916908315150217905550506106e6565b8060a0015173ffffffffffffffffffffffffffffffffffffffff166108fc82608001519081150290604051600060405180830381858888f19350505050158015610680573d6000803e3d6000fd5b506000600184815481106106bd577f4e487b7100000000000000000000000000000000000000000000000000000000600052603260045260246000fd5b906000526020600020906006020160050160146101000a81548160ff0219169083151502179055505b60006002600085815260200190815260200160002060006101000a81548160ff021916908315150217905550600060036000836020015173ffffffffffffffffffffffffffffffffffffffff1673ffffffffffffffffffffffffffffffffffffffff16815260200190815260200160002060008360400151815260200190815260200160002060006101000a81548160ff0219169083151502179055507f4491aa3d8424294ce4e7a501cdeab43297a00db9fc94fb39d10727b81785cc9e83836040516107b49291906116aa565b60405180910390a1505050565b6000600182815481106107fd577f4e487b7100000000000000000000000000000000000000000000000000000000600052603260045260246000fd5b90600052602060002090600602016040518060e00160405290816000820160009054906101000a900473ffffffffffffffffffffffffffffffffffffffff1673ffffffffffffffffffffffffffffffffffffffff1673ffffffffffffffffffffffffffffffffffffffff1681526020016001820160009054906101000a900473ffffffffffffffffffffffffffffffffffffffff1673ffffffffffffffffffffffffffffffffffffffff1673ffffffffffffffffffffffffffffffffffffffff1681526020016002820154815260200160038201548152602001600482015481526020016005820160009054906101000a900473ffffffffffffffffffffffffffffffffffffffff1673ffffffffffffffffffffffffffffffffffffffff1673ffffffffffffffffffffffffffffffffffffffff1681526020016005820160149054906101000a900460ff161515151581525050905080608001513411610999576040517f08c379a0000000000000000000000000000000000000000000000000000000008152600401610990906115b3565b60405180910390fd5b8060a0015173ffffffffffffffffffffffffffffffffffffffff166108fc82608001519081150290604051600060405180830381858888f193505050501580156109e7573d6000803e3d6000fd5b503460018381548110610a23577f4e487b7100000000000000000000000000000000000000000000000000000000600052603260045260246000fd5b9060005260206000209060060201600401819055503360018381548110610a73577f4e487b7100000000000000000000000000000000000000000000000000000000600052603260045260246000fd5b906000526020600020906006020160050160006101000a81548173ffffffffffffffffffffffffffffffffffffffff021916908373ffffffffffffffffffffffffffffffffffffffff1602179055507f0e54eff26401bf69b81b26f60bd85ef47f5d85275c1d268d84f68d6897431c47823334604051610af59392919061162e565b60405180910390a15050565b60036020528160005260406000206020528060005260406000206000915091509054906101000a900460ff1681565b600083905060008173ffffffffffffffffffffffffffffffffffffffff16636352211e856040518263ffffffff1660e01b8152600401610b709190611613565b60206040518083038186803b158015610b8857600080fd5b505afa158015610b9c573d6000803e3d6000fd5b505050506040513d601f19601f82011682018060405250810190610bc0919061123b565b90503373ffffffffffffffffffffffffffffffffffffffff168173ffffffffffffffffffffffffffffffffffffffff1614610c30576040517f08c379a0000000000000000000000000000000000000000000000000000000008152600401610c2790611593565b60405180910390fd5b600360008673ffffffffffffffffffffffffffffffffffffffff1673ffffffffffffffffffffffffffffffffffffffff168152602001908152602001600020600085815260200190815260200160002060009054906101000a900460ff1615610cce576040517f08c379a0000000000000000000000000000000000000000000000000000000008152600401610cc5906115f3565b60405180910390fd5b60006040518060e001604052803373ffffffffffffffffffffffffffffffffffffffff1681526020018773ffffffffffffffffffffffffffffffffffffffff16815260200186815260200185815260200160008152602001600073ffffffffffffffffffffffffffffffffffffffff1681526020016000151581525090506000610d5860006111c3565b905060016002600083815260200190815260200160002060006101000a81548160ff0219169083151502179055506001600360008973ffffffffffffffffffffffffffffffffffffffff1673ffffffffffffffffffffffffffffffffffffffff168152602001908152602001600020600088815260200190815260200160002060006101000a81548160ff021916908315150217905550600182908060018154018082558091505060019003906000526020600020906006020160009091909190915060008201518160000160006101000a81548173ffffffffffffffffffffffffffffffffffffffff021916908373ffffffffffffffffffffffffffffffffffffffff16021790555060208201518160010160006101000a81548173ffffffffffffffffffffffffffffffffffffffff021916908373ffffffffffffffffffffffffffffffffffffffff16021790555060408201518160020155606082015181600301556080820151816004015560a08201518160050160006101000a81548173ffffffffffffffffffffffffffffffffffffffff021916908373ffffffffffffffffffffffffffffffffffffffff16021790555060c08201518160050160146101000a81548160ff0219169083151502179055505050610f3a60006111d1565b7fc9050d42180a61cb0d9ebb8ad118b62fe6eab12cf12ff752c4a0cc7da9ddf62781888888604051610f6f9493929190611665565b60405180910390a150505050505050565b6060600080610f8f60006111c3565b67ffffffffffffffff811115610fce577f4e487b7100000000000000000000000000000000000000000000000000000000600052604160045260246000fd5b604051908082528060200260200182016040528015610ffc5781602001602082028036833780820191505090505b50905060005b61100c60006111c3565b8110156110a1576002600082815260200190815260200160002060009054906101000a900460ff161561108e5780828481518110611073577f4e487b7100000000000000000000000000000000000000000000000000000000600052603260045260246000fd5b602002602001018181525050828061108a906117ad565b9350505b8080611099906117ad565b915050611002565b5060008267ffffffffffffffff8111156110e4577f4e487b7100000000000000000000000000000000000000000000000000000000600052604160045260246000fd5b6040519080825280602002602001820160405280156111125781602001602082028036833780820191505090505b50905060005b838110156111b957828181518110611159577f4e487b7100000000000000000000000000000000000000000000000000000000600052603260045260246000fd5b602002602001015182828151811061119a577f4e487b7100000000000000000000000000000000000000000000000000000000600052603260045260246000fd5b60200260200101818152505080806111b1906117ad565b915050611118565b5080935050505090565b600081600001549050919050565b6001816000016000828254019250508190555050565b6000813590506111f6816118c9565b92915050565b60008151905061120b816118c9565b92915050565b600081359050611220816118e0565b92915050565b600081359050611235816118f7565b92915050565b60006020828403121561124d57600080fd5b600061125b848285016111fc565b91505092915050565b6000806040838503121561127757600080fd5b6000611285858286016111e7565b925050602061129685828601611226565b9150509250929050565b6000806000606084860312156112b557600080fd5b60006112c3868287016111e7565b93505060206112d486828701611226565b92505060406112e586828701611226565b9150509250925092565b60006020828403121561130157600080fd5b600061130f84828501611226565b91505092915050565b6000806040838503121561132b57600080fd5b600061133985828601611226565b925050602061134a85828601611211565b9150509250929050565b60006113608383611492565b60208301905092915050565b61137581611777565b82525050565b6113848161172f565b82525050565b6113938161171d565b82525050565b60006113a4826116e3565b6113ae81856116fb565b93506113b9836116d3565b8060005b838110156113ea5781516113d18882611354565b97506113dc836116ee565b9250506001810190506113bd565b5085935050505092915050565b61140081611741565b82525050565b600061141360168361170c565b915061141e82611825565b602082019050919050565b600061143660138361170c565b91506114418261184e565b602082019050919050565b600061145960168361170c565b915061146482611877565b602082019050919050565b600061147c60198361170c565b9150611487826118a0565b602082019050919050565b61149b8161176d565b82525050565b6114aa8161176d565b82525050565b60006060820190506114c5600083018661136c565b6114d2602083018561136c565b6114df60408301846114a1565b949350505050565b600060e0820190506114fc600083018a61137b565b611509602083018961138a565b61151660408301886114a1565b61152360608301876114a1565b61153060808301866114a1565b61153d60a083018561137b565b61154a60c08301846113f7565b98975050505050505050565b600060208201905081810360008301526115708184611399565b905092915050565b600060208201905061158d60008301846113f7565b92915050565b600060208201905081810360008301526115ac81611406565b9050919050565b600060208201905081810360008301526115cc81611429565b9050919050565b600060208201905081810360008301526115ec8161144c565b9050919050565b6000602082019050818103600083015261160c8161146f565b9050919050565b600060208201905061162860008301846114a1565b92915050565b600060608201905061164360008301866114a1565b611650602083018561137b565b61165d60408301846114a1565b949350505050565b600060808201905061167a60008301876114a1565b611687602083018661138a565b61169460408301856114a1565b6116a160608301846114a1565b95945050505050565b60006040820190506116bf60008301856114a1565b6116cc60208301846113f7565b9392505050565b6000819050602082019050919050565b600081519050919050565b6000602082019050919050565b600082825260208201905092915050565b600082825260208201905092915050565b60006117288261174d565b9050919050565b600061173a8261174d565b9050919050565b60008115159050919050565b600073ffffffffffffffffffffffffffffffffffffffff82169050919050565b6000819050919050565b600061178282611789565b9050919050565b60006117948261179b565b9050919050565b60006117a68261174d565b9050919050565b60006117b88261176d565b91507fffffffffffffffffffffffffffffffffffffffffffffffffffffffffffffffff8214156117eb576117ea6117f6565b5b600182019050919050565b7f4e487b7100000000000000000000000000000000000000000000000000000000600052601160045260246000fd5b7f596f7520646f206e6f74206f776e20746865204e465400000000000000000000600082015250565b7f596f75722062696420697320746f6f206c6f7700000000000000000000000000600082015250565b7f596f7520617265206e6f74207468652073656c6c657200000000000000000000600082015250565b7f546f6b656e20697320616c726561647920666f722073616c6500000000000000600082015250565b6118d28161171d565b81146118dd57600080fd5b50565b6118e981611741565b81146118f457600080fd5b50565b6119008161176d565b811461190b57600080fd5b5056fea264697066735822122080f35c35715896f3b3afc946445b5f5015312a3dd5a0be39544027d5a83b7a7164736f6c63430008040033",
  "linkReferences": {},
  "deployedLinkReferences": {}
}