{
  "_format": "hh-sol-artifact-1",
  "contractName": "ArtSeaMarket",
  "sourceName": "contracts/ArtSeaMarket.sol",
  "abi": [
    {
      "anonymous": false,
      "inputs": [
        {
          "indexed": false,
          "internalType": "uint256",
          "name": "auctionId",
          "type": "uint256"
        },
        {
          "indexed": false,
          "internalType": "address",
          "name": "tokenAddress",
          "type": "address"
        },
        {
          "indexed": false,
          "internalType": "uint256",
          "name": "tokenId",
          "type": "uint256"
        },
        {
          "indexed": false,
          "internalType": "uint256",
          "name": "minBidAmount",
          "type": "uint256"
        }
      ],
      "name": "AuctionCreated",
      "type": "event"
    },
    {
      "anonymous": false,
      "inputs": [
        {
          "indexed": false,
          "internalType": "uint256",
          "name": "auctionId",
          "type": "uint256"
        },
        {
          "indexed": false,
          "internalType": "address payable",
          "name": "bidder",
          "type": "address"
        },
        {
          "indexed": false,
          "internalType": "uint256",
          "name": "bidAmount",
          "type": "uint256"
        }
      ],
      "name": "BidPlaced",
      "type": "event"
    },
    {
      "inputs": [],
      "name": "auctionIds",
      "outputs": [
        {
          "internalType": "uint256",
          "name": "_value",
          "type": "uint256"
        }
      ],
      "stateMutability": "view",
      "type": "function"
    },
    {
      "inputs": [
        {
          "internalType": "uint256",
          "name": "",
          "type": "uint256"
        }
      ],
      "name": "auctions",
      "outputs": [
        {
          "internalType": "address payable",
          "name": "ownerAddress",
          "type": "address"
        },
        {
          "internalType": "address",
          "name": "tokenAddress",
          "type": "address"
        },
        {
          "internalType": "uint256",
          "name": "tokenId",
          "type": "uint256"
        },
        {
          "internalType": "uint256",
          "name": "minBidAmount",
          "type": "uint256"
        },
        {
          "internalType": "uint256",
          "name": "highestBidAmount",
          "type": "uint256"
        },
        {
          "internalType": "address payable",
          "name": "highestBidder",
          "type": "address"
        },
        {
          "internalType": "bool",
          "name": "ended",
          "type": "bool"
        },
        {
          "internalType": "bool",
          "name": "sold",
          "type": "bool"
        }
      ],
      "stateMutability": "view",
      "type": "function"
    },
    {
      "inputs": [
        {
          "internalType": "address",
          "name": "tokenAddress",
          "type": "address"
        },
        {
          "internalType": "uint256",
          "name": "tokenId",
          "type": "uint256"
        },
        {
          "internalType": "uint256",
          "name": "minBidAmount",
          "type": "uint256"
        }
      ],
      "name": "createAuction",
      "outputs": [],
      "stateMutability": "nonpayable",
      "type": "function"
    },
    {
      "inputs": [
        {
          "internalType": "uint256",
          "name": "auctionId",
          "type": "uint256"
        },
        {
          "internalType": "bool",
          "name": "accept",
          "type": "bool"
        }
      ],
      "name": "finalizeAuction",
      "outputs": [],
      "stateMutability": "nonpayable",
      "type": "function"
    },
    {
      "inputs": [
        {
          "internalType": "uint256",
          "name": "auctionId",
          "type": "uint256"
        }
      ],
      "name": "placeBid",
      "outputs": [],
      "stateMutability": "payable",
      "type": "function"
    }
  ],
  "bytecode": "0x608060405234801561001057600080fd5b50610f43806100206000396000f3fe60806040526004361061004a5760003560e01c8063077669f71461004f578063571a26a01461007a5780638cdaab53146100be5780639979ef45146100e7578063abb9405114610103575b600080fd5b34801561005b57600080fd5b5061006461012c565b6040516100719190610d67565b60405180910390f35b34801561008657600080fd5b506100a1600480360381019061009c9190610bbf565b610138565b6040516100b5989796959493929190610cc9565b60405180910390f35b3480156100ca57600080fd5b506100e560048036038101906100e09190610be8565b61020a565b005b61010160048036038101906100fc9190610bbf565b61051f565b005b34801561010f57600080fd5b5061012a60048036038101906101259190610b70565b610788565b005b60008060000154905081565b6001818154811061014857600080fd5b90600052602060002090600602016000915090508060000160009054906101000a900473ffffffffffffffffffffffffffffffffffffffff16908060010160009054906101000a900473ffffffffffffffffffffffffffffffffffffffff16908060020154908060030154908060040154908060050160009054906101000a900473ffffffffffffffffffffffffffffffffffffffff16908060050160149054906101000a900460ff16908060050160159054906101000a900460ff16905088565b600060018381548110610246577f4e487b7100000000000000000000000000000000000000000000000000000000600052603260045260246000fd5b9060005260206000209060060201604051806101000160405290816000820160009054906101000a900473ffffffffffffffffffffffffffffffffffffffff1673ffffffffffffffffffffffffffffffffffffffff1673ffffffffffffffffffffffffffffffffffffffff1681526020016001820160009054906101000a900473ffffffffffffffffffffffffffffffffffffffff1673ffffffffffffffffffffffffffffffffffffffff1673ffffffffffffffffffffffffffffffffffffffff1681526020016002820154815260200160038201548152602001600482015481526020016005820160009054906101000a900473ffffffffffffffffffffffffffffffffffffffff1673ffffffffffffffffffffffffffffffffffffffff1673ffffffffffffffffffffffffffffffffffffffff1681526020016005820160149054906101000a900460ff161515151581526020016005820160159054906101000a900460ff161515151581525050905081156104a8576000816020015190508073ffffffffffffffffffffffffffffffffffffffff166342842e0e83600001518460a0015185604001516040518463ffffffff1660e01b815260040161041093929190610c92565b600060405180830381600087803b15801561042a57600080fd5b505af115801561043e573d6000803e3d6000fd5b50505050816000015173ffffffffffffffffffffffffffffffffffffffff166108fc83608001519081150290604051600060405180830381858888f19350505050158015610490573d6000803e3d6000fd5b5060018260e001901515908115158152505050610509565b8060a0015173ffffffffffffffffffffffffffffffffffffffff166108fc82608001519081150290604051600060405180830381858888f193505050501580156104f6573d6000803e3d6000fd5b5060008160e00190151590811515815250505b60018160c0019015159081151581525050505050565b60018181548110610559577f4e487b7100000000000000000000000000000000000000000000000000000000600052603260045260246000fd5b90600052602060002090600602016004015434111561078557600181815481106105ac577f4e487b7100000000000000000000000000000000000000000000000000000000600052603260045260246000fd5b906000526020600020906006020160050160009054906101000a900473ffffffffffffffffffffffffffffffffffffffff1673ffffffffffffffffffffffffffffffffffffffff166108fc60018381548110610631577f4e487b7100000000000000000000000000000000000000000000000000000000600052603260045260246000fd5b9060005260206000209060060201600401549081150290604051600060405180830381858888f1935050505015801561066e573d6000803e3d6000fd5b5034600182815481106106aa577f4e487b7100000000000000000000000000000000000000000000000000000000600052603260045260246000fd5b90600052602060002090600602016004018190555033600182815481106106fa577f4e487b7100000000000000000000000000000000000000000000000000000000600052603260045260246000fd5b906000526020600020906006020160050160006101000a81548173ffffffffffffffffffffffffffffffffffffffff021916908373ffffffffffffffffffffffffffffffffffffffff1602179055507f0e54eff26401bf69b81b26f60bd85ef47f5d85275c1d268d84f68d6897431c4781333460405161077c93929190610d82565b60405180910390a15b50565b600083905060008173ffffffffffffffffffffffffffffffffffffffff16636352211e856040518263ffffffff1660e01b81526004016107c89190610d67565b60206040518083038186803b1580156107e057600080fd5b505afa1580156107f4573d6000803e3d6000fd5b505050506040513d601f19601f820116820180604052508101906108189190610b47565b90503373ffffffffffffffffffffffffffffffffffffffff168173ffffffffffffffffffffffffffffffffffffffff1614610888576040517f08c379a000000000000000000000000000000000000000000000000000000000815260040161087f90610d47565b60405180910390fd5b60006040518061010001604052803373ffffffffffffffffffffffffffffffffffffffff1681526020018773ffffffffffffffffffffffffffffffffffffffff16815260200186815260200185815260200160008152602001600073ffffffffffffffffffffffffffffffffffffffff168152602001600015158152602001600015158152509050600061091c6000610acf565b9050600182908060018154018082558091505060019003906000526020600020906006020160009091909190915060008201518160000160006101000a81548173ffffffffffffffffffffffffffffffffffffffff021916908373ffffffffffffffffffffffffffffffffffffffff16021790555060208201518160010160006101000a81548173ffffffffffffffffffffffffffffffffffffffff021916908373ffffffffffffffffffffffffffffffffffffffff16021790555060408201518160020155606082015181600301556080820151816004015560a08201518160050160006101000a81548173ffffffffffffffffffffffffffffffffffffffff021916908373ffffffffffffffffffffffffffffffffffffffff16021790555060c08201518160050160146101000a81548160ff02191690831515021790555060e08201518160050160156101000a81548160ff0219169083151502179055505050610a896000610add565b7fc9050d42180a61cb0d9ebb8ad118b62fe6eab12cf12ff752c4a0cc7da9ddf62781888888604051610abe9493929190610db9565b60405180910390a150505050505050565b600081600001549050919050565b6001816000016000828254019250508190555050565b600081359050610b0281610ec8565b92915050565b600081519050610b1781610ec8565b92915050565b600081359050610b2c81610edf565b92915050565b600081359050610b4181610ef6565b92915050565b600060208284031215610b5957600080fd5b6000610b6784828501610b08565b91505092915050565b600080600060608486031215610b8557600080fd5b6000610b9386828701610af3565b9350506020610ba486828701610b32565b9250506040610bb586828701610b32565b9150509250925092565b600060208284031215610bd157600080fd5b6000610bdf84828501610b32565b91505092915050565b60008060408385031215610bfb57600080fd5b6000610c0985828601610b32565b9250506020610c1a85828601610b1d565b9150509250929050565b610c2d81610e69565b82525050565b610c3c81610e21565b82525050565b610c4b81610e0f565b82525050565b610c5a81610e33565b82525050565b6000610c6d601683610dfe565b9150610c7882610e9f565b602082019050919050565b610c8c81610e5f565b82525050565b6000606082019050610ca76000830186610c24565b610cb46020830185610c24565b610cc16040830184610c83565b949350505050565b600061010082019050610cdf600083018b610c33565b610cec602083018a610c42565b610cf96040830189610c83565b610d066060830188610c83565b610d136080830187610c83565b610d2060a0830186610c33565b610d2d60c0830185610c51565b610d3a60e0830184610c51565b9998505050505050505050565b60006020820190508181036000830152610d6081610c60565b9050919050565b6000602082019050610d7c6000830184610c83565b92915050565b6000606082019050610d976000830186610c83565b610da46020830185610c33565b610db16040830184610c83565b949350505050565b6000608082019050610dce6000830187610c83565b610ddb6020830186610c42565b610de86040830185610c83565b610df56060830184610c83565b95945050505050565b600082825260208201905092915050565b6000610e1a82610e3f565b9050919050565b6000610e2c82610e3f565b9050919050565b60008115159050919050565b600073ffffffffffffffffffffffffffffffffffffffff82169050919050565b6000819050919050565b6000610e7482610e7b565b9050919050565b6000610e8682610e8d565b9050919050565b6000610e9882610e3f565b9050919050565b7f596f7520646f206e6f74206f776e20746865204e465400000000000000000000600082015250565b610ed181610e0f565b8114610edc57600080fd5b50565b610ee881610e33565b8114610ef357600080fd5b50565b610eff81610e5f565b8114610f0a57600080fd5b5056fea26469706673582212208180bdac3c2f5ba83414264a5209e89ae8fe3ea38a283ef48c08e088a38fe62364736f6c63430008040033",
  "linkReferences": {},
  "deployedLinkReferences": {}
}