{
  "_format": "hh-sol-artifact-1",
  "contractName": "ArtSeaMarket",
  "sourceName": "contracts/ArtSeaMarket.sol",
  "abi": [
    {
      "anonymous": false,
      "inputs": [
        {
          "indexed": false,
          "internalType": "uint256",
          "name": "auctionId",
          "type": "uint256"
        },
        {
          "indexed": false,
          "internalType": "address",
          "name": "tokenAddress",
          "type": "address"
        },
        {
          "indexed": false,
          "internalType": "uint256",
          "name": "tokenId",
          "type": "uint256"
        },
        {
          "indexed": false,
          "internalType": "uint256",
          "name": "minBidAmount",
          "type": "uint256"
        }
      ],
      "name": "AuctionCreated",
      "type": "event"
    },
    {
      "anonymous": false,
      "inputs": [
        {
          "indexed": false,
          "internalType": "uint256",
          "name": "auctionId",
          "type": "uint256"
        },
        {
          "indexed": false,
          "internalType": "address payable",
          "name": "bidder",
          "type": "address"
        },
        {
          "indexed": false,
          "internalType": "uint256",
          "name": "bidAmount",
          "type": "uint256"
        }
      ],
      "name": "BidPlaced",
      "type": "event"
    },
    {
      "inputs": [],
      "name": "auctionIds",
      "outputs": [
        {
          "internalType": "uint256",
          "name": "_value",
          "type": "uint256"
        }
      ],
      "stateMutability": "view",
      "type": "function"
    },
    {
      "inputs": [
        {
          "internalType": "uint256",
          "name": "",
          "type": "uint256"
        }
      ],
      "name": "auctionIsLive",
      "outputs": [
        {
          "internalType": "bool",
          "name": "",
          "type": "bool"
        }
      ],
      "stateMutability": "view",
      "type": "function"
    },
    {
      "inputs": [
        {
          "internalType": "uint256",
          "name": "",
          "type": "uint256"
        }
      ],
      "name": "auctions",
      "outputs": [
        {
          "internalType": "address payable",
          "name": "ownerAddress",
          "type": "address"
        },
        {
          "internalType": "address",
          "name": "tokenAddress",
          "type": "address"
        },
        {
          "internalType": "uint256",
          "name": "tokenId",
          "type": "uint256"
        },
        {
          "internalType": "uint256",
          "name": "minBidAmount",
          "type": "uint256"
        },
        {
          "internalType": "uint256",
          "name": "highestBidAmount",
          "type": "uint256"
        },
        {
          "internalType": "address payable",
          "name": "highestBidder",
          "type": "address"
        },
        {
          "internalType": "bool",
          "name": "ended",
          "type": "bool"
        },
        {
          "internalType": "bool",
          "name": "sold",
          "type": "bool"
        }
      ],
      "stateMutability": "view",
      "type": "function"
    },
    {
      "inputs": [
        {
          "internalType": "address",
          "name": "tokenAddress",
          "type": "address"
        },
        {
          "internalType": "uint256",
          "name": "tokenId",
          "type": "uint256"
        },
        {
          "internalType": "uint256",
          "name": "minBidAmount",
          "type": "uint256"
        }
      ],
      "name": "createAuction",
      "outputs": [],
      "stateMutability": "nonpayable",
      "type": "function"
    },
    {
      "inputs": [
        {
          "internalType": "uint256",
          "name": "auctionId",
          "type": "uint256"
        },
        {
          "internalType": "bool",
          "name": "accept",
          "type": "bool"
        }
      ],
      "name": "finalizeAuction",
      "outputs": [],
      "stateMutability": "nonpayable",
      "type": "function"
    },
    {
      "inputs": [],
      "name": "liveAuctionIds",
      "outputs": [
        {
          "internalType": "uint256[]",
          "name": "",
          "type": "uint256[]"
        }
      ],
      "stateMutability": "view",
      "type": "function"
    },
    {
      "inputs": [
        {
          "internalType": "uint256",
          "name": "auctionId",
          "type": "uint256"
        }
      ],
      "name": "placeBid",
      "outputs": [],
      "stateMutability": "payable",
      "type": "function"
    }
  ],
  "bytecode": "0x608060405234801561001057600080fd5b5061175a806100206000396000f3fe6080604052600436106100705760003560e01c80638cdaab531161004e5780638cdaab53146101215780639979ef451461014a578063abb9405114610166578063b866a7b81461018f57610070565b8063073272cc14610075578063077669f7146100b2578063571a26a0146100dd575b600080fd5b34801561008157600080fd5b5061009c6004803603810190610097919061118b565b6101ba565b6040516100a99190611400565b60405180910390f35b3480156100be57600080fd5b506100c76101da565b6040516100d4919061147b565b60405180910390f35b3480156100e957600080fd5b5061010460048036038101906100ff919061118b565b6101e6565b604051610118989796959493929190611360565b60405180910390f35b34801561012d57600080fd5b50610148600480360381019061014391906111b4565b6102b8565b005b610164600480360381019061015f919061118b565b610762565b005b34801561017257600080fd5b5061018d6004803603810190610188919061113c565b610abe565b005b34801561019b57600080fd5b506101a4610e31565b6040516101b191906113de565b60405180910390f35b60026020528060005260406000206000915054906101000a900460ff1681565b60008060000154905081565b600181815481106101f657600080fd5b90600052602060002090600602016000915090508060000160009054906101000a900473ffffffffffffffffffffffffffffffffffffffff16908060010160009054906101000a900473ffffffffffffffffffffffffffffffffffffffff16908060020154908060030154908060040154908060050160009054906101000a900473ffffffffffffffffffffffffffffffffffffffff16908060050160149054906101000a900460ff16908060050160159054906101000a900460ff16905088565b6000600183815481106102f4577f4e487b7100000000000000000000000000000000000000000000000000000000600052603260045260246000fd5b9060005260206000209060060201604051806101000160405290816000820160009054906101000a900473ffffffffffffffffffffffffffffffffffffffff1673ffffffffffffffffffffffffffffffffffffffff1673ffffffffffffffffffffffffffffffffffffffff1681526020016001820160009054906101000a900473ffffffffffffffffffffffffffffffffffffffff1673ffffffffffffffffffffffffffffffffffffffff1673ffffffffffffffffffffffffffffffffffffffff1681526020016002820154815260200160038201548152602001600482015481526020016005820160009054906101000a900473ffffffffffffffffffffffffffffffffffffffff1673ffffffffffffffffffffffffffffffffffffffff1673ffffffffffffffffffffffffffffffffffffffff1681526020016005820160149054906101000a900460ff161515151581526020016005820160159054906101000a900460ff16151515158152505090503373ffffffffffffffffffffffffffffffffffffffff16816000015173ffffffffffffffffffffffffffffffffffffffff16146104d8576040517f08c379a00000000000000000000000000000000000000000000000000000000081526004016104cf9061145b565b60405180910390fd5b811561061a576000816020015190508073ffffffffffffffffffffffffffffffffffffffff166342842e0e83600001518460a0015185604001516040518463ffffffff1660e01b815260040161053093929190611329565b600060405180830381600087803b15801561054a57600080fd5b505af115801561055e573d6000803e3d6000fd5b50505050816000015173ffffffffffffffffffffffffffffffffffffffff166108fc83608001519081150290604051600060405180830381858888f193505050501580156105b0573d6000803e3d6000fd5b5060018085815481106105ec577f4e487b7100000000000000000000000000000000000000000000000000000000600052603260045260246000fd5b906000526020600020906006020160050160156101000a81548160ff021916908315150217905550506106ce565b8060a0015173ffffffffffffffffffffffffffffffffffffffff166108fc82608001519081150290604051600060405180830381858888f19350505050158015610668573d6000803e3d6000fd5b506000600184815481106106a5577f4e487b7100000000000000000000000000000000000000000000000000000000600052603260045260246000fd5b906000526020600020906006020160050160156101000a81548160ff0219169083151502179055505b6001808481548110610709577f4e487b7100000000000000000000000000000000000000000000000000000000600052603260045260246000fd5b906000526020600020906006020160050160146101000a81548160ff02191690831515021790555060006002600085815260200190815260200160002060006101000a81548160ff021916908315150217905550505050565b60006001828154811061079e577f4e487b7100000000000000000000000000000000000000000000000000000000600052603260045260246000fd5b9060005260206000209060060201604051806101000160405290816000820160009054906101000a900473ffffffffffffffffffffffffffffffffffffffff1673ffffffffffffffffffffffffffffffffffffffff1673ffffffffffffffffffffffffffffffffffffffff1681526020016001820160009054906101000a900473ffffffffffffffffffffffffffffffffffffffff1673ffffffffffffffffffffffffffffffffffffffff1673ffffffffffffffffffffffffffffffffffffffff1681526020016002820154815260200160038201548152602001600482015481526020016005820160009054906101000a900473ffffffffffffffffffffffffffffffffffffffff1673ffffffffffffffffffffffffffffffffffffffff1673ffffffffffffffffffffffffffffffffffffffff1681526020016005820160149054906101000a900460ff161515151581526020016005820160159054906101000a900460ff161515151581525050905080608001513411610956576040517f08c379a000000000000000000000000000000000000000000000000000000000815260040161094d9061143b565b60405180910390fd5b8060a0015173ffffffffffffffffffffffffffffffffffffffff166108fc82608001519081150290604051600060405180830381858888f193505050501580156109a4573d6000803e3d6000fd5b5034600183815481106109e0577f4e487b7100000000000000000000000000000000000000000000000000000000600052603260045260246000fd5b9060005260206000209060060201600401819055503360018381548110610a30577f4e487b7100000000000000000000000000000000000000000000000000000000600052603260045260246000fd5b906000526020600020906006020160050160006101000a81548173ffffffffffffffffffffffffffffffffffffffff021916908373ffffffffffffffffffffffffffffffffffffffff1602179055507f0e54eff26401bf69b81b26f60bd85ef47f5d85275c1d268d84f68d6897431c47823334604051610ab293929190611496565b60405180910390a15050565b600083905060008173ffffffffffffffffffffffffffffffffffffffff16636352211e856040518263ffffffff1660e01b8152600401610afe919061147b565b60206040518083038186803b158015610b1657600080fd5b505afa158015610b2a573d6000803e3d6000fd5b505050506040513d601f19601f82011682018060405250810190610b4e9190611113565b90503373ffffffffffffffffffffffffffffffffffffffff168173ffffffffffffffffffffffffffffffffffffffff1614610bbe576040517f08c379a0000000000000000000000000000000000000000000000000000000008152600401610bb59061141b565b60405180910390fd5b60006040518061010001604052803373ffffffffffffffffffffffffffffffffffffffff1681526020018773ffffffffffffffffffffffffffffffffffffffff16815260200186815260200185815260200160008152602001600073ffffffffffffffffffffffffffffffffffffffff1681526020016000151581526020016000151581525090506000610c52600061109b565b905060016002600083815260200190815260200160002060006101000a81548160ff021916908315150217905550600182908060018154018082558091505060019003906000526020600020906006020160009091909190915060008201518160000160006101000a81548173ffffffffffffffffffffffffffffffffffffffff021916908373ffffffffffffffffffffffffffffffffffffffff16021790555060208201518160010160006101000a81548173ffffffffffffffffffffffffffffffffffffffff021916908373ffffffffffffffffffffffffffffffffffffffff16021790555060408201518160020155606082015181600301556080820151816004015560a08201518160050160006101000a81548173ffffffffffffffffffffffffffffffffffffffff021916908373ffffffffffffffffffffffffffffffffffffffff16021790555060c08201518160050160146101000a81548160ff02191690831515021790555060e08201518160050160156101000a81548160ff0219169083151502179055505050610deb60006110a9565b7fc9050d42180a61cb0d9ebb8ad118b62fe6eab12cf12ff752c4a0cc7da9ddf62781888888604051610e2094939291906114cd565b60405180910390a150505050505050565b6060600080610e40600061109b565b67ffffffffffffffff811115610e7f577f4e487b7100000000000000000000000000000000000000000000000000000000600052604160045260246000fd5b604051908082528060200260200182016040528015610ead5781602001602082028036833780820191505090505b50905060005b610ebd600061109b565b811015610f52576002600082815260200190815260200160002060009054906101000a900460ff1615610f3f5780828481518110610f24577f4e487b7100000000000000000000000000000000000000000000000000000000600052603260045260246000fd5b6020026020010181815250508280610f3b906115ec565b9350505b8080610f4a906115ec565b915050610eb3565b5060008267ffffffffffffffff811115610f95577f4e487b7100000000000000000000000000000000000000000000000000000000600052604160045260246000fd5b604051908082528060200260200182016040528015610fc35781602001602082028036833780820191505090505b50905060005b83811015611091576002600082815260200190815260200160002060009054906101000a900460ff161561107e57828181518110611030577f4e487b7100000000000000000000000000000000000000000000000000000000600052603260045260246000fd5b6020026020010151828281518110611071577f4e487b7100000000000000000000000000000000000000000000000000000000600052603260045260246000fd5b6020026020010181815250505b8080611089906115ec565b915050610fc9565b5080935050505090565b600081600001549050919050565b6001816000016000828254019250508190555050565b6000813590506110ce816116df565b92915050565b6000815190506110e3816116df565b92915050565b6000813590506110f8816116f6565b92915050565b60008135905061110d8161170d565b92915050565b60006020828403121561112557600080fd5b6000611133848285016110d4565b91505092915050565b60008060006060848603121561115157600080fd5b600061115f868287016110bf565b9350506020611170868287016110fe565b9250506040611181868287016110fe565b9150509250925092565b60006020828403121561119d57600080fd5b60006111ab848285016110fe565b91505092915050565b600080604083850312156111c757600080fd5b60006111d5858286016110fe565b92505060206111e6858286016110e9565b9150509250929050565b60006111fc838361130b565b60208301905092915050565b611211816115b6565b82525050565b6112208161156e565b82525050565b61122f8161155c565b82525050565b600061124082611522565b61124a818561153a565b935061125583611512565b8060005b8381101561128657815161126d88826111f0565b97506112788361152d565b925050600181019050611259565b5085935050505092915050565b61129c81611580565b82525050565b60006112af60168361154b565b91506112ba82611664565b602082019050919050565b60006112d260138361154b565b91506112dd8261168d565b602082019050919050565b60006112f560168361154b565b9150611300826116b6565b602082019050919050565b611314816115ac565b82525050565b611323816115ac565b82525050565b600060608201905061133e6000830186611208565b61134b6020830185611208565b611358604083018461131a565b949350505050565b600061010082019050611376600083018b611217565b611383602083018a611226565b611390604083018961131a565b61139d606083018861131a565b6113aa608083018761131a565b6113b760a0830186611217565b6113c460c0830185611293565b6113d160e0830184611293565b9998505050505050505050565b600060208201905081810360008301526113f88184611235565b905092915050565b60006020820190506114156000830184611293565b92915050565b60006020820190508181036000830152611434816112a2565b9050919050565b60006020820190508181036000830152611454816112c5565b9050919050565b60006020820190508181036000830152611474816112e8565b9050919050565b6000602082019050611490600083018461131a565b92915050565b60006060820190506114ab600083018661131a565b6114b86020830185611217565b6114c5604083018461131a565b949350505050565b60006080820190506114e2600083018761131a565b6114ef6020830186611226565b6114fc604083018561131a565b611509606083018461131a565b95945050505050565b6000819050602082019050919050565b600081519050919050565b6000602082019050919050565b600082825260208201905092915050565b600082825260208201905092915050565b60006115678261158c565b9050919050565b60006115798261158c565b9050919050565b60008115159050919050565b600073ffffffffffffffffffffffffffffffffffffffff82169050919050565b6000819050919050565b60006115c1826115c8565b9050919050565b60006115d3826115da565b9050919050565b60006115e58261158c565b9050919050565b60006115f7826115ac565b91507fffffffffffffffffffffffffffffffffffffffffffffffffffffffffffffffff82141561162a57611629611635565b5b600182019050919050565b7f4e487b7100000000000000000000000000000000000000000000000000000000600052601160045260246000fd5b7f596f7520646f206e6f74206f776e20746865204e465400000000000000000000600082015250565b7f596f75722062696420697320746f6f206c6f7700000000000000000000000000600082015250565b7f596f7520617265206e6f74207468652073656c6c657200000000000000000000600082015250565b6116e88161155c565b81146116f357600080fd5b50565b6116ff81611580565b811461170a57600080fd5b50565b611716816115ac565b811461172157600080fd5b5056fea2646970667358221220e0d3067d188d1d47828af17d8eb924ad0c2060887f1162462e9ed2de3d79f5fb64736f6c63430008040033",
  "linkReferences": {},
  "deployedLinkReferences": {}
}