{
  "_format": "hh-sol-artifact-1",
  "contractName": "ArtSeaTokens",
  "sourceName": "contracts/ArtSeaTokens.sol",
  "abi": [
    {
      "inputs": [],
      "stateMutability": "nonpayable",
      "type": "constructor"
    },
    {
      "anonymous": false,
      "inputs": [
        {
          "indexed": true,
          "internalType": "address",
          "name": "owner",
          "type": "address"
        },
        {
          "indexed": true,
          "internalType": "address",
          "name": "approved",
          "type": "address"
        },
        {
          "indexed": true,
          "internalType": "uint256",
          "name": "tokenId",
          "type": "uint256"
        }
      ],
      "name": "Approval",
      "type": "event"
    },
    {
      "anonymous": false,
      "inputs": [
        {
          "indexed": true,
          "internalType": "address",
          "name": "owner",
          "type": "address"
        },
        {
          "indexed": true,
          "internalType": "address",
          "name": "operator",
          "type": "address"
        },
        {
          "indexed": false,
          "internalType": "bool",
          "name": "approved",
          "type": "bool"
        }
      ],
      "name": "ApprovalForAll",
      "type": "event"
    },
    {
      "anonymous": false,
      "inputs": [
        {
          "indexed": true,
          "internalType": "address",
          "name": "from",
          "type": "address"
        },
        {
          "indexed": true,
          "internalType": "address",
          "name": "to",
          "type": "address"
        },
        {
          "indexed": true,
          "internalType": "uint256",
          "name": "tokenId",
          "type": "uint256"
        }
      ],
      "name": "Transfer",
      "type": "event"
    },
    {
      "inputs": [
        {
          "internalType": "address",
          "name": "to",
          "type": "address"
        },
        {
          "internalType": "uint256",
          "name": "tokenId",
          "type": "uint256"
        }
      ],
      "name": "approve",
      "outputs": [],
      "stateMutability": "nonpayable",
      "type": "function"
    },
    {
      "inputs": [
        {
          "internalType": "address",
          "name": "owner",
          "type": "address"
        }
      ],
      "name": "balanceOf",
      "outputs": [
        {
          "internalType": "uint256",
          "name": "",
          "type": "uint256"
        }
      ],
      "stateMutability": "view",
      "type": "function"
    },
    {
      "inputs": [
        {
          "internalType": "uint256",
          "name": "tokenId",
          "type": "uint256"
        }
      ],
      "name": "getApproved",
      "outputs": [
        {
          "internalType": "address",
          "name": "",
          "type": "address"
        }
      ],
      "stateMutability": "view",
      "type": "function"
    },
    {
      "inputs": [
        {
          "internalType": "address",
          "name": "owner",
          "type": "address"
        },
        {
          "internalType": "address",
          "name": "operator",
          "type": "address"
        }
      ],
      "name": "isApprovedForAll",
      "outputs": [
        {
          "internalType": "bool",
          "name": "",
          "type": "bool"
        }
      ],
      "stateMutability": "view",
      "type": "function"
    },
    {
      "inputs": [],
      "name": "name",
      "outputs": [
        {
          "internalType": "string",
          "name": "",
          "type": "string"
        }
      ],
      "stateMutability": "view",
      "type": "function"
    },
    {
      "inputs": [
        {
          "internalType": "uint256",
          "name": "tokenId",
          "type": "uint256"
        }
      ],
      "name": "ownerOf",
      "outputs": [
        {
          "internalType": "address",
          "name": "",
          "type": "address"
        }
      ],
      "stateMutability": "view",
      "type": "function"
    },
    {
      "inputs": [
        {
          "internalType": "address",
          "name": "to",
          "type": "address"
        },
        {
          "internalType": "string",
          "name": "uri",
          "type": "string"
        }
      ],
      "name": "safeMint",
      "outputs": [],
      "stateMutability": "nonpayable",
      "type": "function"
    },
    {
      "inputs": [
        {
          "internalType": "address",
          "name": "from",
          "type": "address"
        },
        {
          "internalType": "address",
          "name": "to",
          "type": "address"
        },
        {
          "internalType": "uint256",
          "name": "tokenId",
          "type": "uint256"
        }
      ],
      "name": "safeTransferFrom",
      "outputs": [],
      "stateMutability": "nonpayable",
      "type": "function"
    },
    {
      "inputs": [
        {
          "internalType": "address",
          "name": "from",
          "type": "address"
        },
        {
          "internalType": "address",
          "name": "to",
          "type": "address"
        },
        {
          "internalType": "uint256",
          "name": "tokenId",
          "type": "uint256"
        },
        {
          "internalType": "bytes",
          "name": "_data",
          "type": "bytes"
        }
      ],
      "name": "safeTransferFrom",
      "outputs": [],
      "stateMutability": "nonpayable",
      "type": "function"
    },
    {
      "inputs": [
        {
          "internalType": "address",
          "name": "operator",
          "type": "address"
        },
        {
          "internalType": "bool",
          "name": "approved",
          "type": "bool"
        }
      ],
      "name": "setApprovalForAll",
      "outputs": [],
      "stateMutability": "nonpayable",
      "type": "function"
    },
    {
      "inputs": [
        {
          "internalType": "bytes4",
          "name": "interfaceId",
          "type": "bytes4"
        }
      ],
      "name": "supportsInterface",
      "outputs": [
        {
          "internalType": "bool",
          "name": "",
          "type": "bool"
        }
      ],
      "stateMutability": "view",
      "type": "function"
    },
    {
      "inputs": [],
      "name": "symbol",
      "outputs": [
        {
          "internalType": "string",
          "name": "",
          "type": "string"
        }
      ],
      "stateMutability": "view",
      "type": "function"
    },
    {
      "inputs": [
        {
          "internalType": "uint256",
          "name": "index",
          "type": "uint256"
        }
      ],
      "name": "tokenByIndex",
      "outputs": [
        {
          "internalType": "uint256",
          "name": "",
          "type": "uint256"
        }
      ],
      "stateMutability": "view",
      "type": "function"
    },
    {
      "inputs": [
        {
          "internalType": "address",
          "name": "owner",
          "type": "address"
        },
        {
          "internalType": "uint256",
          "name": "index",
          "type": "uint256"
        }
      ],
      "name": "tokenOfOwnerByIndex",
      "outputs": [
        {
          "internalType": "uint256",
          "name": "",
          "type": "uint256"
        }
      ],
      "stateMutability": "view",
      "type": "function"
    },
    {
      "inputs": [
        {
          "internalType": "uint256",
          "name": "tokenId",
          "type": "uint256"
        }
      ],
      "name": "tokenURI",
      "outputs": [
        {
          "internalType": "string",
          "name": "",
          "type": "string"
        }
      ],
      "stateMutability": "view",
      "type": "function"
    },
    {
      "inputs": [],
      "name": "totalSupply",
      "outputs": [
        {
          "internalType": "uint256",
          "name": "",
          "type": "uint256"
        }
      ],
      "stateMutability": "view",
      "type": "function"
    },
    {
      "inputs": [
        {
          "internalType": "address",
          "name": "from",
          "type": "address"
        },
        {
          "internalType": "address",
          "name": "to",
          "type": "address"
        },
        {
          "internalType": "uint256",
          "name": "tokenId",
          "type": "uint256"
        }
      ],
      "name": "transferFrom",
      "outputs": [],
      "stateMutability": "nonpayable",
      "type": "function"
    }
  ],
  "bytecode": "0x60806040523480156200001157600080fd5b506040518060400160405280600d81526020017f41727453656120546f6b656e73000000000000000000000000000000000000008152506040518060400160405280600481526020017f4152545300000000000000000000000000000000000000000000000000000000815250816000908051906020019062000096929190620000b8565b508060019080519060200190620000af929190620000b8565b505050620001cd565b828054620000c69062000168565b90600052602060002090601f016020900481019282620000ea576000855562000136565b82601f106200010557805160ff191683800117855562000136565b8280016001018555821562000136579182015b828111156200013557825182559160200191906001019062000118565b5b50905062000145919062000149565b5090565b5b80821115620001645760008160009055506001016200014a565b5090565b600060028204905060018216806200018157607f821691505b602082108114156200019857620001976200019e565b5b50919050565b7f4e487b7100000000000000000000000000000000000000000000000000000000600052602260045260246000fd5b61341280620001dd6000396000f3fe608060405234801561001057600080fd5b506004361061010b5760003560e01c80634f6ccce7116100a2578063a22cb46511610071578063a22cb465146102de578063b88d4fde146102fa578063c87b56dd14610316578063d204c45e14610346578063e985e9c5146103625761010b565b80634f6ccce7146102305780636352211e1461026057806370a082311461029057806395d89b41146102c05761010b565b806318160ddd116100de57806318160ddd146101aa57806323b872dd146101c85780632f745c59146101e457806342842e0e146102145761010b565b806301ffc9a71461011057806306fdde0314610140578063081812fc1461015e578063095ea7b31461018e575b600080fd5b61012a6004803603810190610125919061239b565b610392565b60405161013791906127e7565b60405180910390f35b6101486103a4565b6040516101559190612802565b60405180910390f35b610178600480360381019061017391906123ed565b610436565b6040516101859190612780565b60405180910390f35b6101a860048036038101906101a3919061235f565b6104bb565b005b6101b26105d3565b6040516101bf9190612a64565b60405180910390f35b6101e260048036038101906101dd9190612205565b6105e0565b005b6101fe60048036038101906101f9919061235f565b610640565b60405161020b9190612a64565b60405180910390f35b61022e60048036038101906102299190612205565b6106e5565b005b61024a600480360381019061024591906123ed565b610705565b6040516102579190612a64565b60405180910390f35b61027a600480360381019061027591906123ed565b61079c565b6040516102879190612780565b60405180910390f35b6102aa60048036038101906102a591906121a0565b61084e565b6040516102b79190612a64565b60405180910390f35b6102c8610906565b6040516102d59190612802565b60405180910390f35b6102f860048036038101906102f391906122cf565b610998565b005b610314600480360381019061030f9190612254565b6109ae565b005b610330600480360381019061032b91906123ed565b610a10565b60405161033d9190612802565b60405180910390f35b610360600480360381019061035b919061230b565b610a22565b005b61037c600480360381019061037791906121c9565b610a53565b60405161038991906127e7565b60405180910390f35b600061039d82610ae7565b9050919050565b6060600080546103b390612cba565b80601f01602080910402602001604051908101604052809291908181526020018280546103df90612cba565b801561042c5780601f106104015761010080835404028352916020019161042c565b820191906000526020600020905b81548152906001019060200180831161040f57829003601f168201915b5050505050905090565b600061044182610b61565b610480576040517f08c379a0000000000000000000000000000000000000000000000000000000008152600401610477906129a4565b60405180910390fd5b6004600083815260200190815260200160002060009054906101000a900473ffffffffffffffffffffffffffffffffffffffff169050919050565b60006104c68261079c565b90508073ffffffffffffffffffffffffffffffffffffffff168373ffffffffffffffffffffffffffffffffffffffff161415610537576040517f08c379a000000000000000000000000000000000000000000000000000000000815260040161052e90612a04565b60405180910390fd5b8073ffffffffffffffffffffffffffffffffffffffff16610556610bcd565b73ffffffffffffffffffffffffffffffffffffffff16148061058557506105848161057f610bcd565b610a53565b5b6105c4576040517f08c379a00000000000000000000000000000000000000000000000000000000081526004016105bb906128e4565b60405180910390fd5b6105ce8383610bd5565b505050565b6000600880549050905090565b6105f16105eb610bcd565b82610c8e565b610630576040517f08c379a000000000000000000000000000000000000000000000000000000000815260040161062790612a24565b60405180910390fd5b61063b838383610d6c565b505050565b600061064b8361084e565b821061068c576040517f08c379a000000000000000000000000000000000000000000000000000000000815260040161068390612824565b60405180910390fd5b600660008473ffffffffffffffffffffffffffffffffffffffff1673ffffffffffffffffffffffffffffffffffffffff168152602001908152602001600020600083815260200190815260200160002054905092915050565b610700838383604051806020016040528060008152506109ae565b505050565b600061070f6105d3565b8210610750576040517f08c379a000000000000000000000000000000000000000000000000000000000815260040161074790612a44565b60405180910390fd5b6008828154811061078a577f4e487b7100000000000000000000000000000000000000000000000000000000600052603260045260246000fd5b90600052602060002001549050919050565b6000806002600084815260200190815260200160002060009054906101000a900473ffffffffffffffffffffffffffffffffffffffff169050600073ffffffffffffffffffffffffffffffffffffffff168173ffffffffffffffffffffffffffffffffffffffff161415610845576040517f08c379a000000000000000000000000000000000000000000000000000000000815260040161083c90612924565b60405180910390fd5b80915050919050565b60008073ffffffffffffffffffffffffffffffffffffffff168273ffffffffffffffffffffffffffffffffffffffff1614156108bf576040517f08c379a00000000000000000000000000000000000000000000000000000000081526004016108b690612904565b60405180910390fd5b600360008373ffffffffffffffffffffffffffffffffffffffff1673ffffffffffffffffffffffffffffffffffffffff168152602001908152602001600020549050919050565b60606001805461091590612cba565b80601f016020809104026020016040519081016040528092919081815260200182805461094190612cba565b801561098e5780601f106109635761010080835404028352916020019161098e565b820191906000526020600020905b81548152906001019060200180831161097157829003601f168201915b5050505050905090565b6109aa6109a3610bcd565b8383610fc8565b5050565b6109bf6109b9610bcd565b83610c8e565b6109fe576040517f08c379a00000000000000000000000000000000000000000000000000000000081526004016109f590612a24565b60405180910390fd5b610a0a84848484611135565b50505050565b6060610a1b82611191565b9050919050565b6000610a2e600b6112e3565b9050610a3a600b6112f1565b610a448382611307565b610a4e8183611325565b505050565b6000600560008473ffffffffffffffffffffffffffffffffffffffff1673ffffffffffffffffffffffffffffffffffffffff16815260200190815260200160002060008373ffffffffffffffffffffffffffffffffffffffff1673ffffffffffffffffffffffffffffffffffffffff16815260200190815260200160002060009054906101000a900460ff16905092915050565b60007f780e9d63000000000000000000000000000000000000000000000000000000007bffffffffffffffffffffffffffffffffffffffffffffffffffffffff1916827bffffffffffffffffffffffffffffffffffffffffffffffffffffffff19161480610b5a5750610b5982611399565b5b9050919050565b60008073ffffffffffffffffffffffffffffffffffffffff166002600084815260200190815260200160002060009054906101000a900473ffffffffffffffffffffffffffffffffffffffff1673ffffffffffffffffffffffffffffffffffffffff1614159050919050565b600033905090565b816004600083815260200190815260200160002060006101000a81548173ffffffffffffffffffffffffffffffffffffffff021916908373ffffffffffffffffffffffffffffffffffffffff160217905550808273ffffffffffffffffffffffffffffffffffffffff16610c488361079c565b73ffffffffffffffffffffffffffffffffffffffff167f8c5be1e5ebec7d5bd14f71427d1e84f3dd0314c0f7b2291e5b200ac8c7c3b92560405160405180910390a45050565b6000610c9982610b61565b610cd8576040517f08c379a0000000000000000000000000000000000000000000000000000000008152600401610ccf906128c4565b60405180910390fd5b6000610ce38361079c565b90508073ffffffffffffffffffffffffffffffffffffffff168473ffffffffffffffffffffffffffffffffffffffff161480610d5257508373ffffffffffffffffffffffffffffffffffffffff16610d3a84610436565b73ffffffffffffffffffffffffffffffffffffffff16145b80610d635750610d628185610a53565b5b91505092915050565b8273ffffffffffffffffffffffffffffffffffffffff16610d8c8261079c565b73ffffffffffffffffffffffffffffffffffffffff1614610de2576040517f08c379a0000000000000000000000000000000000000000000000000000000008152600401610dd9906129c4565b60405180910390fd5b600073ffffffffffffffffffffffffffffffffffffffff168273ffffffffffffffffffffffffffffffffffffffff161415610e52576040517f08c379a0000000000000000000000000000000000000000000000000000000008152600401610e4990612884565b60405180910390fd5b610e5d83838361147b565b610e68600082610bd5565b6001600360008573ffffffffffffffffffffffffffffffffffffffff1673ffffffffffffffffffffffffffffffffffffffff1681526020019081526020016000206000828254610eb89190612bd0565b925050819055506001600360008473ffffffffffffffffffffffffffffffffffffffff1673ffffffffffffffffffffffffffffffffffffffff1681526020019081526020016000206000828254610f0f9190612b49565b92505081905550816002600083815260200190815260200160002060006101000a81548173ffffffffffffffffffffffffffffffffffffffff021916908373ffffffffffffffffffffffffffffffffffffffff160217905550808273ffffffffffffffffffffffffffffffffffffffff168473ffffffffffffffffffffffffffffffffffffffff167fddf252ad1be2c89b69c2b068fc378daa952ba7f163c4a11628f55a4df523b3ef60405160405180910390a4505050565b8173ffffffffffffffffffffffffffffffffffffffff168373ffffffffffffffffffffffffffffffffffffffff161415611037576040517f08c379a000000000000000000000000000000000000000000000000000000000815260040161102e906128a4565b60405180910390fd5b80600560008573ffffffffffffffffffffffffffffffffffffffff1673ffffffffffffffffffffffffffffffffffffffff16815260200190815260200160002060008473ffffffffffffffffffffffffffffffffffffffff1673ffffffffffffffffffffffffffffffffffffffff16815260200190815260200160002060006101000a81548160ff0219169083151502179055508173ffffffffffffffffffffffffffffffffffffffff168373ffffffffffffffffffffffffffffffffffffffff167f17307eab39ab6107e8899845ad3d59bd9653f200f220920489ca2b5937696c318360405161112891906127e7565b60405180910390a3505050565b611140848484610d6c565b61114c8484848461148b565b61118b576040517f08c379a000000000000000000000000000000000000000000000000000000000815260040161118290612844565b60405180910390fd5b50505050565b606061119c82610b61565b6111db576040517f08c379a00000000000000000000000000000000000000000000000000000000081526004016111d290612984565b60405180910390fd5b6000600a600084815260200190815260200160002080546111fb90612cba565b80601f016020809104026020016040519081016040528092919081815260200182805461122790612cba565b80156112745780601f1061124957610100808354040283529160200191611274565b820191906000526020600020905b81548152906001019060200180831161125757829003601f168201915b505050505090506000611285611622565b905060008151141561129b5781925050506112de565b6000825111156112d05780826040516020016112b892919061275c565b604051602081830303815290604052925050506112de565b6112d984611639565b925050505b919050565b600081600001549050919050565b6001816000016000828254019250508190555050565b6113218282604051806020016040528060008152506116e0565b5050565b61132e82610b61565b61136d576040517f08c379a000000000000000000000000000000000000000000000000000000000815260040161136490612944565b60405180910390fd5b80600a60008481526020019081526020016000209080519060200190611394929190611fc4565b505050565b60007f80ac58cd000000000000000000000000000000000000000000000000000000007bffffffffffffffffffffffffffffffffffffffffffffffffffffffff1916827bffffffffffffffffffffffffffffffffffffffffffffffffffffffff1916148061146457507f5b5e139f000000000000000000000000000000000000000000000000000000007bffffffffffffffffffffffffffffffffffffffffffffffffffffffff1916827bffffffffffffffffffffffffffffffffffffffffffffffffffffffff1916145b8061147457506114738261173b565b5b9050919050565b6114868383836117a5565b505050565b60006114ac8473ffffffffffffffffffffffffffffffffffffffff166118b9565b15611615578373ffffffffffffffffffffffffffffffffffffffff1663150b7a026114d5610bcd565b8786866040518563ffffffff1660e01b81526004016114f7949392919061279b565b602060405180830381600087803b15801561151157600080fd5b505af192505050801561154257506040513d601f19601f8201168201806040525081019061153f91906123c4565b60015b6115c5573d8060008114611572576040519150601f19603f3d011682016040523d82523d6000602084013e611577565b606091505b506000815114156115bd576040517f08c379a00000000000000000000000000000000000000000000000000000000081526004016115b490612844565b60405180910390fd5b805181602001fd5b63150b7a0260e01b7bffffffffffffffffffffffffffffffffffffffffffffffffffffffff1916817bffffffffffffffffffffffffffffffffffffffffffffffffffffffff19161491505061161a565b600190505b949350505050565b606060405180602001604052806000815250905090565b606061164482610b61565b611683576040517f08c379a000000000000000000000000000000000000000000000000000000000815260040161167a906129e4565b60405180910390fd5b600061168d611622565b905060008151116116ad57604051806020016040528060008152506116d8565b806116b7846118cc565b6040516020016116c892919061275c565b6040516020818303038152906040525b915050919050565b6116ea8383611a79565b6116f7600084848461148b565b611736576040517f08c379a000000000000000000000000000000000000000000000000000000000815260040161172d90612844565b60405180910390fd5b505050565b60007f01ffc9a7000000000000000000000000000000000000000000000000000000007bffffffffffffffffffffffffffffffffffffffffffffffffffffffff1916827bffffffffffffffffffffffffffffffffffffffffffffffffffffffff1916149050919050565b6117b0838383611c47565b600073ffffffffffffffffffffffffffffffffffffffff168373ffffffffffffffffffffffffffffffffffffffff1614156117f3576117ee81611c4c565b611832565b8173ffffffffffffffffffffffffffffffffffffffff168373ffffffffffffffffffffffffffffffffffffffff1614611831576118308382611c95565b5b5b600073ffffffffffffffffffffffffffffffffffffffff168273ffffffffffffffffffffffffffffffffffffffff1614156118755761187081611e02565b6118b4565b8273ffffffffffffffffffffffffffffffffffffffff168273ffffffffffffffffffffffffffffffffffffffff16146118b3576118b28282611f45565b5b5b505050565b600080823b905060008111915050919050565b60606000821415611914576040518060400160405280600181526020017f30000000000000000000000000000000000000000000000000000000000000008152509050611a74565b600082905060005b6000821461194657808061192f90612d1d565b915050600a8261193f9190612b9f565b915061191c565b60008167ffffffffffffffff811115611988577f4e487b7100000000000000000000000000000000000000000000000000000000600052604160045260246000fd5b6040519080825280601f01601f1916602001820160405280156119ba5781602001600182028036833780820191505090505b5090505b60008514611a6d576001826119d39190612bd0565b9150600a856119e29190612d66565b60306119ee9190612b49565b60f81b818381518110611a2a577f4e487b7100000000000000000000000000000000000000000000000000000000600052603260045260246000fd5b60200101907effffffffffffffffffffffffffffffffffffffffffffffffffffffffffffff1916908160001a905350600a85611a669190612b9f565b94506119be565b8093505050505b919050565b600073ffffffffffffffffffffffffffffffffffffffff168273ffffffffffffffffffffffffffffffffffffffff161415611ae9576040517f08c379a0000000000000000000000000000000000000000000000000000000008152600401611ae090612964565b60405180910390fd5b611af281610b61565b15611b32576040517f08c379a0000000000000000000000000000000000000000000000000000000008152600401611b2990612864565b60405180910390fd5b611b3e6000838361147b565b6001600360008473ffffffffffffffffffffffffffffffffffffffff1673ffffffffffffffffffffffffffffffffffffffff1681526020019081526020016000206000828254611b8e9190612b49565b92505081905550816002600083815260200190815260200160002060006101000a81548173ffffffffffffffffffffffffffffffffffffffff021916908373ffffffffffffffffffffffffffffffffffffffff160217905550808273ffffffffffffffffffffffffffffffffffffffff16600073ffffffffffffffffffffffffffffffffffffffff167fddf252ad1be2c89b69c2b068fc378daa952ba7f163c4a11628f55a4df523b3ef60405160405180910390a45050565b505050565b6008805490506009600083815260200190815260200160002081905550600881908060018154018082558091505060019003906000526020600020016000909190919091505550565b60006001611ca28461084e565b611cac9190612bd0565b9050600060076000848152602001908152602001600020549050818114611d91576000600660008673ffffffffffffffffffffffffffffffffffffffff1673ffffffffffffffffffffffffffffffffffffffff168152602001908152602001600020600084815260200190815260200160002054905080600660008773ffffffffffffffffffffffffffffffffffffffff1673ffffffffffffffffffffffffffffffffffffffff168152602001908152602001600020600084815260200190815260200160002081905550816007600083815260200190815260200160002081905550505b6007600084815260200190815260200160002060009055600660008573ffffffffffffffffffffffffffffffffffffffff1673ffffffffffffffffffffffffffffffffffffffff16815260200190815260200160002060008381526020019081526020016000206000905550505050565b60006001600880549050611e169190612bd0565b9050600060096000848152602001908152602001600020549050600060088381548110611e6c577f4e487b7100000000000000000000000000000000000000000000000000000000600052603260045260246000fd5b906000526020600020015490508060088381548110611eb4577f4e487b7100000000000000000000000000000000000000000000000000000000600052603260045260246000fd5b906000526020600020018190555081600960008381526020019081526020016000208190555060096000858152602001908152602001600020600090556008805480611f29577f4e487b7100000000000000000000000000000000000000000000000000000000600052603160045260246000fd5b6001900381819060005260206000200160009055905550505050565b6000611f508361084e565b905081600660008573ffffffffffffffffffffffffffffffffffffffff1673ffffffffffffffffffffffffffffffffffffffff168152602001908152602001600020600083815260200190815260200160002081905550806007600084815260200190815260200160002081905550505050565b828054611fd090612cba565b90600052602060002090601f016020900481019282611ff25760008555612039565b82601f1061200b57805160ff1916838001178555612039565b82800160010185558215612039579182015b8281111561203857825182559160200191906001019061201d565b5b509050612046919061204a565b5090565b5b8082111561206357600081600090555060010161204b565b5090565b600061207a61207584612aa4565b612a7f565b90508281526020810184848401111561209257600080fd5b61209d848285612c78565b509392505050565b60006120b86120b384612ad5565b612a7f565b9050828152602081018484840111156120d057600080fd5b6120db848285612c78565b509392505050565b6000813590506120f281613380565b92915050565b60008135905061210781613397565b92915050565b60008135905061211c816133ae565b92915050565b600081519050612131816133ae565b92915050565b600082601f83011261214857600080fd5b8135612158848260208601612067565b91505092915050565b600082601f83011261217257600080fd5b81356121828482602086016120a5565b91505092915050565b60008135905061219a816133c5565b92915050565b6000602082840312156121b257600080fd5b60006121c0848285016120e3565b91505092915050565b600080604083850312156121dc57600080fd5b60006121ea858286016120e3565b92505060206121fb858286016120e3565b9150509250929050565b60008060006060848603121561221a57600080fd5b6000612228868287016120e3565b9350506020612239868287016120e3565b925050604061224a8682870161218b565b9150509250925092565b6000806000806080858703121561226a57600080fd5b6000612278878288016120e3565b9450506020612289878288016120e3565b935050604061229a8782880161218b565b925050606085013567ffffffffffffffff8111156122b757600080fd5b6122c387828801612137565b91505092959194509250565b600080604083850312156122e257600080fd5b60006122f0858286016120e3565b9250506020612301858286016120f8565b9150509250929050565b6000806040838503121561231e57600080fd5b600061232c858286016120e3565b925050602083013567ffffffffffffffff81111561234957600080fd5b61235585828601612161565b9150509250929050565b6000806040838503121561237257600080fd5b6000612380858286016120e3565b92505060206123918582860161218b565b9150509250929050565b6000602082840312156123ad57600080fd5b60006123bb8482850161210d565b91505092915050565b6000602082840312156123d657600080fd5b60006123e484828501612122565b91505092915050565b6000602082840312156123ff57600080fd5b600061240d8482850161218b565b91505092915050565b61241f81612c04565b82525050565b61242e81612c16565b82525050565b600061243f82612b06565b6124498185612b1c565b9350612459818560208601612c87565b61246281612e53565b840191505092915050565b600061247882612b11565b6124828185612b2d565b9350612492818560208601612c87565b61249b81612e53565b840191505092915050565b60006124b182612b11565b6124bb8185612b3e565b93506124cb818560208601612c87565b80840191505092915050565b60006124e4602b83612b2d565b91506124ef82612e64565b604082019050919050565b6000612507603283612b2d565b915061251282612eb3565b604082019050919050565b600061252a601c83612b2d565b915061253582612f02565b602082019050919050565b600061254d602483612b2d565b915061255882612f2b565b604082019050919050565b6000612570601983612b2d565b915061257b82612f7a565b602082019050919050565b6000612593602c83612b2d565b915061259e82612fa3565b604082019050919050565b60006125b6603883612b2d565b91506125c182612ff2565b604082019050919050565b60006125d9602a83612b2d565b91506125e482613041565b604082019050919050565b60006125fc602983612b2d565b915061260782613090565b604082019050919050565b600061261f602e83612b2d565b915061262a826130df565b604082019050919050565b6000612642602083612b2d565b915061264d8261312e565b602082019050919050565b6000612665603183612b2d565b915061267082613157565b604082019050919050565b6000612688602c83612b2d565b9150612693826131a6565b604082019050919050565b60006126ab602983612b2d565b91506126b6826131f5565b604082019050919050565b60006126ce602f83612b2d565b91506126d982613244565b604082019050919050565b60006126f1602183612b2d565b91506126fc82613293565b604082019050919050565b6000612714603183612b2d565b915061271f826132e2565b604082019050919050565b6000612737602c83612b2d565b915061274282613331565b604082019050919050565b61275681612c6e565b82525050565b600061276882856124a6565b915061277482846124a6565b91508190509392505050565b60006020820190506127956000830184612416565b92915050565b60006080820190506127b06000830187612416565b6127bd6020830186612416565b6127ca604083018561274d565b81810360608301526127dc8184612434565b905095945050505050565b60006020820190506127fc6000830184612425565b92915050565b6000602082019050818103600083015261281c818461246d565b905092915050565b6000602082019050818103600083015261283d816124d7565b9050919050565b6000602082019050818103600083015261285d816124fa565b9050919050565b6000602082019050818103600083015261287d8161251d565b9050919050565b6000602082019050818103600083015261289d81612540565b9050919050565b600060208201905081810360008301526128bd81612563565b9050919050565b600060208201905081810360008301526128dd81612586565b9050919050565b600060208201905081810360008301526128fd816125a9565b9050919050565b6000602082019050818103600083015261291d816125cc565b9050919050565b6000602082019050818103600083015261293d816125ef565b9050919050565b6000602082019050818103600083015261295d81612612565b9050919050565b6000602082019050818103600083015261297d81612635565b9050919050565b6000602082019050818103600083015261299d81612658565b9050919050565b600060208201905081810360008301526129bd8161267b565b9050919050565b600060208201905081810360008301526129dd8161269e565b9050919050565b600060208201905081810360008301526129fd816126c1565b9050919050565b60006020820190508181036000830152612a1d816126e4565b9050919050565b60006020820190508181036000830152612a3d81612707565b9050919050565b60006020820190508181036000830152612a5d8161272a565b9050919050565b6000602082019050612a79600083018461274d565b92915050565b6000612a89612a9a565b9050612a958282612cec565b919050565b6000604051905090565b600067ffffffffffffffff821115612abf57612abe612e24565b5b612ac882612e53565b9050602081019050919050565b600067ffffffffffffffff821115612af057612aef612e24565b5b612af982612e53565b9050602081019050919050565b600081519050919050565b600081519050919050565b600082825260208201905092915050565b600082825260208201905092915050565b600081905092915050565b6000612b5482612c6e565b9150612b5f83612c6e565b9250827fffffffffffffffffffffffffffffffffffffffffffffffffffffffffffffffff03821115612b9457612b93612d97565b5b828201905092915050565b6000612baa82612c6e565b9150612bb583612c6e565b925082612bc557612bc4612dc6565b5b828204905092915050565b6000612bdb82612c6e565b9150612be683612c6e565b925082821015612bf957612bf8612d97565b5b828203905092915050565b6000612c0f82612c4e565b9050919050565b60008115159050919050565b60007fffffffff0000000000000000000000000000000000000000000000000000000082169050919050565b600073ffffffffffffffffffffffffffffffffffffffff82169050919050565b6000819050919050565b82818337600083830152505050565b60005b83811015612ca5578082015181840152602081019050612c8a565b83811115612cb4576000848401525b50505050565b60006002820490506001821680612cd257607f821691505b60208210811415612ce657612ce5612df5565b5b50919050565b612cf582612e53565b810181811067ffffffffffffffff82111715612d1457612d13612e24565b5b80604052505050565b6000612d2882612c6e565b91507fffffffffffffffffffffffffffffffffffffffffffffffffffffffffffffffff821415612d5b57612d5a612d97565b5b600182019050919050565b6000612d7182612c6e565b9150612d7c83612c6e565b925082612d8c57612d8b612dc6565b5b828206905092915050565b7f4e487b7100000000000000000000000000000000000000000000000000000000600052601160045260246000fd5b7f4e487b7100000000000000000000000000000000000000000000000000000000600052601260045260246000fd5b7f4e487b7100000000000000000000000000000000000000000000000000000000600052602260045260246000fd5b7f4e487b7100000000000000000000000000000000000000000000000000000000600052604160045260246000fd5b6000601f19601f8301169050919050565b7f455243373231456e756d657261626c653a206f776e657220696e646578206f7560008201527f74206f6620626f756e6473000000000000000000000000000000000000000000602082015250565b7f4552433732313a207472616e7366657220746f206e6f6e20455243373231526560008201527f63656976657220696d706c656d656e7465720000000000000000000000000000602082015250565b7f4552433732313a20746f6b656e20616c7265616479206d696e74656400000000600082015250565b7f4552433732313a207472616e7366657220746f20746865207a65726f2061646460008201527f7265737300000000000000000000000000000000000000000000000000000000602082015250565b7f4552433732313a20617070726f766520746f2063616c6c657200000000000000600082015250565b7f4552433732313a206f70657261746f7220717565727920666f72206e6f6e657860008201527f697374656e7420746f6b656e0000000000000000000000000000000000000000602082015250565b7f4552433732313a20617070726f76652063616c6c6572206973206e6f74206f7760008201527f6e6572206e6f7220617070726f76656420666f7220616c6c0000000000000000602082015250565b7f4552433732313a2062616c616e636520717565727920666f7220746865207a6560008201527f726f206164647265737300000000000000000000000000000000000000000000602082015250565b7f4552433732313a206f776e657220717565727920666f72206e6f6e657869737460008201527f656e7420746f6b656e0000000000000000000000000000000000000000000000602082015250565b7f45524337323155524953746f726167653a2055524920736574206f66206e6f6e60008201527f6578697374656e7420746f6b656e000000000000000000000000000000000000602082015250565b7f4552433732313a206d696e7420746f20746865207a65726f2061646472657373600082015250565b7f45524337323155524953746f726167653a2055524920717565727920666f722060008201527f6e6f6e6578697374656e7420746f6b656e000000000000000000000000000000602082015250565b7f4552433732313a20617070726f76656420717565727920666f72206e6f6e657860008201527f697374656e7420746f6b656e0000000000000000000000000000000000000000602082015250565b7f4552433732313a207472616e73666572206f6620746f6b656e2074686174206960008201527f73206e6f74206f776e0000000000000000000000000000000000000000000000602082015250565b7f4552433732314d657461646174613a2055524920717565727920666f72206e6f60008201527f6e6578697374656e7420746f6b656e0000000000000000000000000000000000602082015250565b7f4552433732313a20617070726f76616c20746f2063757272656e74206f776e6560008201527f7200000000000000000000000000000000000000000000000000000000000000602082015250565b7f4552433732313a207472616e736665722063616c6c6572206973206e6f74206f60008201527f776e6572206e6f7220617070726f766564000000000000000000000000000000602082015250565b7f455243373231456e756d657261626c653a20676c6f62616c20696e646578206f60008201527f7574206f6620626f756e64730000000000000000000000000000000000000000602082015250565b61338981612c04565b811461339457600080fd5b50565b6133a081612c16565b81146133ab57600080fd5b50565b6133b781612c22565b81146133c257600080fd5b50565b6133ce81612c6e565b81146133d957600080fd5b5056fea26469706673582212208dab0384e5978cef2336cbf68dd353be696454294436ba825f51470ae91c082e64736f6c63430008040033",
  "linkReferences": {},
  "deployedLinkReferences": {}
}